:02000002B0004C
:1040000000400B0040760B00000006000C0005028B
:0840100004010410000000008F
:04401800CC720B005B
:10401C0009480A49884208B505D0094A824202D0AB
:10402C00121A03F075F80748074A0021121A03F018
:10403C007DF8014808BD00BFECE5032090750B002E
:10404C0074E6032074E60320EDE7032070B5074EF9
:10405C00074C02F01FF9A41BA4080025AC4200D1A8
:10406C0070BD56F8043B98470135F7E730750B00E7
:10407C0054750B0000F016B808B500F0DDF9BDE87A
:10408C00084002F0BFB800F0F9BF00F0F7BF00F035
:10409C00FDBF0078B0FA80F040097047012303702F
:1040AC007047000010B5074C02F0AAF901F096FB1E
:1040BC002088012102F05EF920880021BDE8104023
:1040CC0002F069B904E6032038B5046805467CB1F2
:1040DC006368013B63605BB9236820469B68984723
:1040EC00A368013BA3601BB923682046DB68984793
:1040FC00284638BD38B50A4B0A4A01251D700A4BB3
:10410C000024C3E900449A60022000F0E1FE284636
:10411C00214600F0EDFEBDE83840044800F0A6B999
:10412C0080E603200000FFFF74E6032088E60320EE
:10413C0070B52DED028B794D9FED798A2888794EDB
:10414C008CB0012102F027F902F05AF9764901F0FE
:10415C0041FB0121734800F0B6FC0221714800F0CC
:10416C0039FC4CF250316F4800F0B6FB6D483221EF
:10417C0000F03DFA64240121304600F059FB07EEB3
:10418C00900AB8EEC88AF8EEE77A013C78EE277A06
:10419C00BDEEE78AEFD19FED657A654B654C87EEF6
:1041AC00878AD3ED007AF8EEE77AF4EEC87AF1EE6E
:1041BC0010FA2ADB604BD3ED007AF8EEE77AF4EED6
:1041CC00C87AF1EE10FA20D801233220236000F0D7
:1041DC008DFF2888594D002102F0DDF822682B68EC
:1041EC009A4200F0918000F0C9FE0346002847D1A6
:1041FC00534E02460146706800F000FF304601F055
:10420C00CBFB80BB00F0AAFEF8E74E4BD3ED007A57
:10421C00F8EEE77AF4EEC87AF1EE10FA0BDB4A4BC3
:10422C00D3ED007AF8EEE77AF4EEC87AF1EE10FAF4
:10423C0001D80223C9E7454BD3ED007AF8EEE77AB3
:10424C00F4EEC87AF1EE10FA0BDB414BD3ED007AA9
:10425C00F8EEE77AF4EEC87AF1EE10FA01D80323FF
:10426C00B3E70423B1E7364801F096FB00F07EFE7D
:10427C0000F084FE10B900F071FEF9E700F07EFE4C
:10428C0000F07CFE00283FD03249334E08A801F0E4
:10429C001AFD0A22216804A801F03BFD04A908A814
:1042AC0001F07BFD337801688DF8003000223C234F
:1042BC0002A801F09BF803A8FFF706FF04A801F081
:1042CC00B7FC08A801F0B4FC244908A801F0FBFCD9
:1042DC00B0EE480A062104A801F02EFD04A908A896
:1042EC0001F05BFD337801688DF8003000223C232F
:1042FC0002A801F07BF803A8FFF7E6FE04A801F082
:10430C0097FC08A801F094FC23682B6032200CB0B9
:10431C00BDEC028BBDE8704000F0E8BE04E6032063
:10432C000000000088E60320801A06000000C84246
:10433C00F0E50320B4E60320ECE5032084E603203B
:10434C000CE70320F8E50320F4E5032000E6032046
:10435C00FCE50320E0720B0080E60320EE720B00FC
:10436C0030B541F288338BB00322CDE9042304A885
:10437C000123ADF8183000F038FF00F0FFFD0446C3
:10438C0010B100F0EBFDF8E7274D00F0F7FD686881
:10439C0023462246214600F039FE284601F000FB58
:1043AC0010B900F0DBFDF8E71F4801F0F9FA3220F4
:1043BC0000F09CFE05AB0493012310228DF82430F1
:1043CC0003230025ADF81630184908950223104632
:1043DC00CDE90655ADF814208DF8183002F074F8BC
:1043EC000446E0B11022294602F0A0FE104B2360D7
:1043FC000423A380089BA3600E4BE360089401A8E0
:10440C0004A901F005FD019808B100F03FFE0898E1
:10441C0040B184680C21FFF73AFE2046F8E78DF88E
:10442C002400ECE70BB030BD0CE70320BC740B0090
:10443C0010000300C0D4010008B5FFF779FE41F26B
:10444C00883000F053FEBDE80840FFF789BF10B577
:10445C000446C08B48B100F01BFC628CE38B821AC3
:10446C0090B283422CBF0020012010BD10B5044631
:10447C0001F0C6FF292323770023E38384F820303F
:10448C004FF04073A061A362204610BD70B5044686
:10449C000D46017F8069164601F0D2F9A0690368C8
:1044AC00290A9B689847A0690368E9B29B689847FA
:1044BC00A069036831469B689847A06901F0C8F968
:1044CC00207370BD70B504460E46017F8069154699
:1044DC0001F0B6F9A0690368310A9B689847A06996
:1044EC000368F1B29B689847A0690368290A9B6826
:1044FC009847A0690368E9B29B689847A06901F0E6
:10450C00A7F9207370BD70B504460E46017F806913
:10451C00154601F095F9A0690368310A9B68984724
:10452C00A0690368F1B29B689847A0690368290EDB
:10453C009B689847A0690368C5F307419B68984737
:10454C00A0690368C5F307219B689847A0690368B5
:10455C00E9B29B689847A06901F07AF9207370BDA5
:10456C0038B504460D46017F806901F069F9A069F0
:10457C000368290A9B689847A0690368E9B29B689D
:10458C009847A06901F064F9217F20730122A0698A
:10459C0001F053F9A06903685B699847C0B238BD54
:1045AC0038B504460D46017F806901F049F9A069D0
:1045BC000368290A9B689847A0690368E9B29B685D
:1045CC009847A06901F044F9217F20730222A06969
:1045DC0001F033F9A06903685B6998470546A06947
:1045EC0003685B69984740EA052080B238BD10B576
:1045FC00C28C04464A436C21FFF785FF20460122FA
:10460C008621FFF743FF20464022BDE8104087215A
:10461C00FFF73CBF10B50B210446FFF7A1FF0821A3
:10462C0084F829002046FFF79BFF94F8292084F892
:10463C002A0002F07F0220460B21FFF727FF94F897
:10464C002A2002F0030220460C320821FFF71EFF3D
:10465C00012220464D21FFF719FFD8212046FFF7F4
:10466C007FFF472102462046BDE81040FFF70EBFF2
:10467C0010B50446017F806901F0E2F8A069036877
:10468C0000219B689847A069036889219B6898471B
:10469C00A06901F0DDF8217F20731122A06901F0DF
:1046AC00CCF8A06903685B699847A073A06903689C
:1046BC005B699847A06903685B699847E073A069D8
:1046CC0003685B69984700022082A06903685B69F4
:1046DC009847238A18432082A06903685B6998472E
:1046EC00A06903685B699847A06903685B69984790
:1046FC0000026082A06903685B699847638A18436B
:10470C006082A06903685B699847A06903685B696C
:10471C009847A06903685B699847A06903685B695F
:10472C009847A06903685B6998470002A082A0695A
:10473C0003685B699847A38A1843A082A069036841
:10474C005B6998470002E082A06903685B6998473F
:10475C00E38A1843E08210BD30B4048A0346D4B116
:10476C00428AC18A4FF6FF751144A94228BF2946D7
:10477C00B4EB014F4FEA01420DD8B2FBF4F24FF00B
:10478C002063B3FBF2F2AA4228BF2A4692B254210C
:10479C0030BCFFF797BE4FF4004254211846F7E7A0
:1047AC00838A40F2DB72534303F58063DB0A038098
:1047BC00837B013B112B37D8DFE803F0090909266D
:1047CC0024282A2E3036362C20363636092205235C
:1047DC008370C38ADFED156A07EE103A438A07EE41
:1047EC00903AB8EE477AF8EE677A27EE267A67EEBB
:1047FC00A67A80ED017AC0ED027A70470D23E7E7C7
:10480C000A23E5E70423E3E70223E1E70123DFE7DB
:10481C000723DDE70923DBE70323D9E7C37B0BB9C8
:10482C000623D5E70023D3E7FF23D1E70000003CA4
:10483C0038B50446A1B100F02BFA60843121204632
:10484C00FFF78EFEC04310F0010509D12046FFF79B
:10485C00FEFD0028F2D0012384F82030284638BD14
:10486C002046FFF705FF94F828302BB92046FFF7B8
:10487C00D1FE012384F828302046FFF76DFF204637
:10488C00FFF78EFF86210122FFF700FE2088E6E766
:10489C00C3B2000A03FA00F00130704760B101386E
:1048AC00002330F0FF019AB203F1010301D040085C
:1048BC00F7E740EA022080B27047838C4FF08040CB
:1048CC00B0FBF3F04FF4106358438309481C4000CD
:1048DC00C0B258438009704741F2B01399422DE998
:1048EC00F041054656D92C4BA1F58D54103C9C42F9
:1048FC0050D86021FFF734FE01462846FFF7DDFF54
:10490C00470807F57A12B2FBF0F2FF2A28BFFF2204
:10491C000646D2B24B212846FFF7B8FD07F580506A
:10492C00B0FBF6F0FFF7BAFF640802465A2128469E
:10493C00FFF7C8FD4FEA043807EB0434B4FBF6F07C
:10494C00FFF7ACFF5E2102462846FFF7BBFD632153
:10495C002846FFF705FE01462846FFF7AEFF46083E
:10496C00044606F58050B0FBF4F0FFF797FF5C218E
:10497C0002462846FFF7A6FD08EB0600B0FBF4F054
:10498C00FFF78CFF612102462846FFF79BFD0120B3
:10499C00BDE8F0810020FBE7E0C8100038B56021CD
:1049AC000546FFF7DDFD01462846FFF786FF5E2131
:1049BC0004462846FFF7F4FDFFF76AFF00224FF488
:1049CC000063E4FB0032180B40EA025000F6D800FA
:1049DC00400038BD70B50D460446FFF7DFFF012DD2
:1049EC0006462ED0022D4CD0002D6AD10722602114
:1049FC002046FFF74BFD052263212046FFF746FDBD
:104A0C00382269212046FFF741FD072278212046F4
:104A1C00FFF73CFD052279212046FFF737FD0622E2
:104A2C007A212046FFF732FD06227B212046FFF734
:104A3C002DFD31462046FFF74FFF84F82B50012007
:104A4C0070BD0B2260212046FFF720FD0922632157
:104A5C002046FFF71BFD782269212046FFF716FD43
:104A6C000B2278212046FFF711FD092279212046DF
:104A7C00FFF70CFD0A227A212046FFF707FD0A22D8
:104A8C00D3E70F2260212046FFF700FD0D226321A2
:104A9C002046FFF7FBFCB82269212046FFF7F6FC05
:104AAC000F2278212046FFF7F1FC0D2279212046B8
:104ABC00FFF7ECFC0E227A212046FFF7E7FC0E22D2
:104ACC00B3E70020BCE738B50D4640F20F110446A1
:104ADC00FFF766FD4EF6CC23984240F0BE800022D4
:104AEC0011462046FFF7D2FC642000F0C9F80122E1
:104AFC0000212046FFF7CAFC012000F0F7FA00F075
:104B0C00C7F86084E5212046FFF72AFDC30740F172
:104B1C009B80237B002B40F0978055B12E212046A3
:104B2C00FFF71EFD40F00100C2B22E212046FFF718
:104B3C00ADFC06212046FFF733FDDE21A084204684
:104B4C00FFF72EFD4FF42062E08424212046FFF76E
:104B5C00B9FC022231212046FFF798FC08223621AD
:104B6C002046FFF793FC102237212046FFF78EFCDE
:104B7C00012239212046FFF789FCFF223E212046E5
:104B8C00FFF784FC00223F212046FFF77FFC022226
:104B9C0040212046FFF77AFC002250212046FFF7E7
:104BAC0091FC002252212046FFF78CFC3822572121
:104BBC002046FFF76BFC4FF4B47264212046FFF7DC
:104BCC0081FCC02266212046FFF77CFC012271216A
:104BDC002046FFF75BFC01227C212046FFF756FCA8
:104BEC0002227E212046FFF751FC00228221204622
:104BFC00FFF74CFC012277212046FFF747FC8B2264
:104C0C0081212046FFF742FC4FF4484254212046B4
:104C1C00FFF758FC02224F212046FFF737FC0221F8
:104C2C002046FFF7D7FE4CF250312046FFF754FEDA
:104C3C0022212046FFF7B4FC800082B21E212046C0
:104C4C00FFF740FC012038BD2046FFF700FC002890
:104C5C003FF458AF012384F820300020F3E7000024
:104C6C0008B5024B1B685B6C019308BD480203003E
:104C7C0008B5024B1B685B68019308BD1802030062
:104C8C0008B5024B1B68DB68019308BD18020300D2
:104C9C0008B5024B1B685B69019308BD1802030041
:104CAC0008B5024B1B689B68019308BD2C020300DE
:104CBC0008B5024B1B68DB68019308BD2C0203008E
:104CCC0008B5024B1B681B69019308BD2C0203003D
:104CDC0008B5024B1B681B68019308BD2802030032
:104CEC0008B5024B1B68DB68019308BD2802030062
:104CFC0008B5024B1B689B69019308BD2802030091
:104D0C0008B5024B1B68DB69019308BD2802030040
:104D1C0008B5024B1B681B6A019308BD28020300EF
:104D2C0008B5024B1B685B6A019308BD280203009F
:104D3C0008B5024B1B689B6A019308BD280203004F
:104D4C0008B5024B1B68DB6A019308BD28020300FF
:104D5C0008B5024B1B681B6B019308BD28020300AE
:104D6C0008B5024B1B685B6B019308BD280203005E
:104D7C0008B5024B1B681B6C019308BD280203008D
:104D8C0008B5024B1B681B6D019308BD280203007C
:104D9C0008B5024B1B685B69019308BD64020300F4
:104DAC0008B5024B1B689B68019308BD68020300A1
:104DBC0008B5024B1B68DB68019308BD6802030051
:104DCC0008B5024B1B68DB69019308BD3002030078
:104DDC0008B5024B1B681B6A019308BD3002030027
:104DEC0008B5024B1B68DB68019308BD3C0203004D
:104DFC0008B5024B1B681B69019308BD3C020300FC
:104E0C0008B5024B1B685B69019308BD3C020300AB
:104E1C0008B5024B1B689B69019308BD3C0203005B
:104E2C0008B5024B1B68DB69019308BD3C0203000B
:104E3C0008B5024B1B681B6A019308BD3C020300BA
:104E4C0008B5024B1B689B6A019308BD3C0203002A
:104E5C0008B5024B1B681B6C019308BD3C02030098
:104E6C0008B5024B1B681B68019308BD4C0203007C
:104E7C0008B5024B1B681B69019308BD4C0203006B
:104E8C0008B5024B1B685B69019308BD4C0203001B
:104E9C0008B5024B1B689B69019308BD4C020300CB
:104EAC0008B5024B1B68DB69019308BD4C0203007B
:104EBC0008B5024B1B681B6A019308BD4C0203002A
:104ECC0008B5024B1B681B6D019308BD6002030003
:104EDC0008B5024B1B685B68019308BD20020300F8
:104EEC0008B5024B1B685B69019308BD20020300E7
:104EFC0008B5024B1B68DB6A019308BD2002030056
:104F0C0008B5024B1B68DB6C019308BD2002030043
:104F1C0008B5024B1B685B6D019308BD20020300B2
:104F2C0008B5034B1B68D3F88830019308BD00000B
:104F3C002002030008B5034B1B68D3F8943001938F
:104F4C0008BD00002002030008B5034B1B68D3F812
:104F5C00A830019308BD00002002030008B5024BE5
:104F6C001B689B68019308BD4402030008B5024B03
:104F7C001B68DB68019308BD4402030008B5024BB3
:104F8C001B685B69019308BD4402030008B5024B22
:104F9C001B681B6A019308BD4402030008B5024B51
:104FAC001B68DB6B019308BD4402030008B5024B80
:104FBC001B685B6C019308BD4402030008B5024BEF
:104FCC001B685B68019308BD4002030008B5024BE7
:104FDC001B689B68019308BD4002030008B5024B97
:104FEC001B68DB68019308BD4002030008B5024B47
:104FFC001B681B69019308BD4002030008B5024BF6
:10500C001B685B69019308BD4002030008B5024BA5
:10501C001B689B69019308BD4002030008B5024B55
:10502C001B68DB69019308BD4002030008B5024B05
:10503C001B681B6A019308BD4002030008B5024BB4
:10504C001B681B6B019308BD4002030008B5024BA3
:10505C001B685B6B019308BD4002030008B5024B53
:10506C001B681B6C019308BD4002030008B5024B82
:10507C001B685B6C019308BD4002030008B5024B32
:10508C001B681B68019308BD1C02030008B5024B8A
:10509C001B685B68019308BD1C02030008B5024B3A
:1050AC001B689B68019308BD1C02030008B5024BEA
:1050BC001B68DB6A019308BD1C02030008B5024B98
:1050CC001B681B6B019308BD1C02030008B5024B47
:1050DC001B681B6C019308BD1C02030008B5024B36
:1050EC001B685B6C019308BD1C0203000021FFF7D9
:1050FC00F7BE10B5836804460BB901F0E9F9C36833
:10510C009847A3681BB103222146204698472046A6
:10511C001021BDE81040FEF7BABF10B583680446F5
:10512C0013B1032201469847204610BD13B50B4618
:10513C000246D0E900016C4684E8030093E80300C2
:10514C0082E8030094E8030083E8030002B010BD7A
:10515C00024800230360FFF783BD00BFB8E60320BD
:10516C0070470020704710B510210446FEF78FFFE2
:10517C00204610BD08B5FFF7F6FF08BD30B500227C
:10518C004FF69C74026084808D888C800C688580BE
:10519C0004600A6030BD10B504460068FFF776FF66
:1051AC00204610BD38B5C468F4B12378022B03D166
:1051BC0004F10C00FFF7EFFF656835B12846FFF7E7
:1051CC00ACFF10212846FEF762FFA56835B12846D2
:1051DC00FFF7A3FF10212846FEF759FF20461421A4
:1051EC00BDE83840FEF753BF38BD1FB50C23ADF8F2
:1051FC00043003688DF80630037A8DF80730436865
:10520C0002930021437AADF80D1001A88DF80F1010
:10521C008DF80C30FFF7CAFE05B05DF804FB0B6887
:10522C0003604B68436013B15A6801325A6070478F
:10523C0037B5044668460D46FFF7F1FF009B019A0F
:10524C0023606260002301A801930093FEF73CFFEA
:10525C0035B1281DFEF738FF08212846FEF717FF49
:10526C00204603B030BD826810B50AB901F030F9A0
:10527C00BDE81040C368184708B5006800F110017C
:10528C00FFF7F1FF08BD826810B50AB901F020F9EB
:10529C00BDE81040C368184708B5006800F110015C
:1052AC00FFF7F1FF08BD000038B50023044603608A
:1052BC0010200D46FEF7E7FE28B10123C0E90133AB
:1052CC00024B0360C5602060204638BD08730B009C
:1052DC0038B5002383608B6804460D462BB102223F
:1052EC009847EB68E360AB68A360204638BD0000CC
:1052FC00F0B589B004686846FFF740FF4FF0020331
:10530C00D4E84F2F002A03D1C4E8413F0029F7D13C
:10531C0025D104F10C0569462846FFF72FFFBFF392
:10532C005B8F01236370002004F10803BFF35B8FD4
:10533C0053E8006F43E80002002AF9D1BFF35B8FFA
:10534C006EB1FFF7DDFD78B129463046FFF78BFFD4
:10535C003046FFF7E2FE10213046FEF798FE684615
:10536C00FFF719FF09B0F0BD314602A8FFF7B0FFF7
:10537C00E068B4F9105008B101F016FF0690102047
:10538C00ADF81C50FEF77FFE0546E8B1002787609C
:10539C001820FEF778FE044688B10146876002A803
:1053AC00FFF7C4FE049BA268A360059B049206A9A8
:1053BC00E268E36004F110000592FFF7DFFE084B92
:1053CC00EB60084B2C60AB6006A8FFF7E4FE02A86C
:1053DC00FFF7A3FE002229460348FFF799FDB7E724
:1053EC0085520B0009550B00FF500B002DE9F04FB7
:1053FC008BB005469DF850A00F4690469946FFF796
:10540C00BDFD07AE834638BB4FF62E73059005A93C
:10541C003046ADF81830FFF7B1FE1420FEF733FE1E
:10542C00044648B1022303700123C0E901BB437059
:10543C0031460C30FFF7A2FE2846214640F8044BBB
:10544C00FFF732FF3046FFF7A6FE05A8FFF7A3FED5
:10545C0028460BB0BDE8F08F0C2300241420CDE9B6
:10546C0008440793FEF70FFE014618B1C0E901444A
:10547C000470447004A80391FFF716FF1E4B0893A9
:10548C000820FEF700FE044610B103A9FFF7C7FE83
:10549C0000965FFA8AF34A46414638460994FFF76C
:1054AC0075FDB8B9039B5B7803F0FF0293B94FF617
:1054BC009C7305A903A80592ADF81830FFF718FFE7
:1054CC0005A8FFF768FE05A80999FFF7B1FE06A825
:1054DC00FEF7FAFD03A905A8FFF7A1FE059B069AA6
:1054EC002B606A60002306A806930593FEF7ECFD7B
:1054FC0004A8FEF7E9FDABE785550B00012AF8B5CA
:10550C00054603D10B6803600020F8BD022A10D0B9
:10551C00032AF9D10468002CF6D004F11000FFF72F
:10552C003AFE2046FFF7F9FD18212046FEF7AFFDA5
:10553C00EAE718200E68FEF7A6FD044650B1314686
:10554C00FFF7C6FE3069B6F9147008B101F02CFEF5
:10555C002061A7822C60D7E738B5002383608B6865
:10556C0004460D462BB102229847EB68E360AB680A
:10557C00A360204638BD0000F0B589B004460D4646
:10558C0001A81146FFF754FEA4B124B21DB1284660
:10559C0001F00AFE054601A803A90395ADF81040D9
:1055AC00FFF7A6FE03A8FFF7F6FD02A8FEF78CFD99
:1055BC0009B0F0BD019D0123D5E84F2F002A03D17E
:1055CC00C5E8413F0029F7D1EFD12B73BFF35B8FB7
:1055DC006B702B1DBFF35B8F53E8006F43E80042E9
:1055EC00002AF9D1BFF35B8F002EDED02046FFF7E7
:1055FC0087FC074660B105F10C013046FFF743FE0E
:10560C003046FFF78AFD10213046FEF740FDCCE70F
:10561C00314603A8FFF7A0FF2B7B8DF81C30102020
:10562C00FEF731FD0546D0B187601420FEF72BFD47
:10563C00044678B18760014603A8FFF777FD059B08
:10564C00A268A360069B0592E268E3609DF81C309B
:10565C0006922374064BEB60064B2C60AB6003A8E0
:10566C00FFF75BFD002229460348FFF751FCC7E713
:10567C00A5520B0089560B00FF500B00012A70B588
:10568C00044603D10B680360002070BD022A0CD0C5
:10569C00032AF9D10468002CF6D02046FFF73DFD13
:1056AC0014212046FEF7F3FCEEE714200E68FEF7FB
:1056BC00EAFC054620B13146FFF74EFF337C2B74D4
:1056CC002560E1E7002240681146FFF7AFBC0022DD
:1056DC0040681146FFF7BABC40680022FFF7AEBC29
:1056EC004068002281F00101FFF798BC002340685C
:1056FC001A461946FFF78ABC002340681A46194619
:10570C00FFF77CBC002240681146FFF76FBC0022FB
:10571C0040681146FFF75ABC406800220221FFF78F
:10572C005DBC002340681A46FFF748BC024B0322BD
:10573C005A60024A1A607047BCE6032024730B00BF
:10574C007047F8B5064615460C468F18BC4206D075
:10575C00336814F8011B9B6830469847F6E72846D7
:10576C00F8BD007C0022FFF7D3BA007C0021FFF7C4
:10577C00D7BA007C0021FFF7DBBA007C0021FFF7D1
:10578C00DFBA007C0021FFF7E3BA10B51421044600
:10579C00FEF77DFC204610BD38B5044615464FF487
:1057AC007A730022C4E90123094B21740846236053
:1057BC002946FFF7DDFABF3008D16B69DB0705D549
:1057CC006868FFF763FCE868FFF760FC204638BDAB
:1057DC0060730B00007C0022FFF77ABA0023007C78
:1057EC001A461946FFF77CBA7FB500221423CDE97F
:1057FC000122ADF804300B788DF808304B68039318
:10580C00CB680493007C0B7A059301A9FFF7B8FAD7
:10581C0007B05DF804FB1FB5003B8DF800104FF08E
:10582C006401039118BF0123694601928DF8083079
:10583C00FFF7DAFF05B05DF804FB0123FFF7EBBFC0
:10584C00007C0022FFF754BA007C0022FFF758BA04
:10585C000121FFF7F9BF704710B518210446FEF778
:10586C0016FC204610BDF0B5037D062B8DB00E4600
:10587C0000F104074FF0000412D000F1080515F8F0
:10588C00011D0A22304600F044F9AF42044419D0FD
:10589C00002CF4D02E21304600F038F90444EEE709
:1058AC002F236A4639460A208DF80040FFF770FA1C
:1058BC00684601F096FC33680246DB686946304660
:1058CC009847044620460DB0F0BD000010B5054BBE
:1058DC000446112240F8043B002101F027FC20462D
:1058EC0010BD00BF88730B000346074A10B543F880
:1058FC00042B01F1100251F8044B43F8044B914274
:10590C00F9D10A781A7010BD88730B0010B59DF888
:10591C00084044EA032343EA024242EA01610423B9
:10592C004160037510BD000007B5064B0360CB78D2
:10593C0000938B784A780978FFF7E8FF03B05DF89D
:10594C0004FB00BF88730B00014B024A1A607047BE
:10595C00C4E6032094730B00002340681A46FFF73B
:10596C002DBB406800220221FFF738BB00224068A3
:10597C001146FFF72BBB002240681146FFF736BBE0
:10598C00002340681A461946FFF738BB00234068CD
:10599C001A461946FFF73ABB40680021FFF75EBB79
:1059AC0040680021FFF762BB4068002281F00101D2
:1059BC00FFF734BB40680022FFF740BB0022406871
:1059CC001146FFF743BB002240681146FFF72EBB80
:1059DC002DE9F04395B014460D460746FFF776FFC8
:1059EC0000211C220DA8009101F0A0FB40230C9378
:1059FC0020466B460CAA0021FFF7DAF90446002872
:105A0C004BD1024601216868FFF7F0FA022180466B
:105A1C0022466868FFF7EAFA009E81462146002E6E
:105A2C003BD0002939D17368022B03D00A2B11D03B
:105A3C00F669F4E7B8F1000FFAD0716906A80431E1
:105A4C0007ADFFF771FF0FCD3C1D0FC42B68237002
:105A5C004146EDE7B9F1000FEAD07469102201A8B4
:105A6C0001F064FB06238DF8143001AD04F108033A
:105A7C001834186859682A4603C20833A3421546DD
:105A8C00F7D101A906A807ADFFF72EFF0FCD3C1DDE
:105A9C000FC42B6823704946CAE70098FFF780F9BA
:105AAC00384615B0BDE8F083024B034A1A60002259
:105ABC005A607047C8E60320A0730B00F8B5064681
:105ACC000D468F180024BD420CD0336815F8011B0D
:105ADC009B6830469847031E01DB1C44F3E7002CFF
:105AEC0008BF1C462046F8BD13B50446084659B1FC
:105AFC00019101F076FB23680199DB680246204690
:105B0C0002B0BDE81040184702B010BD03689B6896
:105B1C00184730B58BB00023012A8DF8243098BF7C
:105B2C000A2209AC0D46B1FBF2F101FB125303F052
:105B3C00FF03092B94BF30333733DBB2AA4204F88E
:105B4C00013DEFD92146FFF7CFFF0BB030BD000070
:105B5C00014B00229A607047D0E6032010B5044632
:105B6C0008462170FFF72CF900236360204610BD16
:105B7C002DE9F14F57EC106B80460C4610EE100AD5
:105B8C0000220023394601F0D5F828B107F1004373
:105B9C001F462D2304F8013B00234FF001090A2274
:105BAC00D9B2884503D902FB09F90133F8E7484615
:105BBC0000F0E4FD32463B4600F04AFE06460F4636
:105BCC0001F018F98A4605468B4600F00BFE02469A
:105BDC000B463046394600F083FC144B002201F092
:105BEC00BDF810B101354AF1000B4A462846D317CF
:105BFC00594601F0E7F80123154621460A2200F028
:105C0C00A4FAB8F1000F0ED0204601F0EAFA2E23C8
:105C1C00211823540A2243460131284601B0BDE81D
:105C2C00F04F00F092BA01B0BDE8F08F0000E03FF9
:105C3C0010B504460068FFF729FA204610BD10B5D0
:105C4C000446006808B1FFF721FA0023C4E90133C8
:105C5C00236010BD38B504460D4600680131FFF7CE
:105C6C001DFA10B1C4E90005012038BD10B5036858
:105C7C00044623B143688B4201D3012010BD20465A
:105C8C00FFF7E8FF0028F9D0A368002BF5D12268B4
:105C9C001370F2E737B50D46114601920446FFF733
:105CAC00E5FF019A28B92046FFF7C9FF204603B04B
:105CBC0030BDA2602946206801F02AFA2268A36848
:105CCC000021D154F2E7002313B5C0E90033044698
:105CDC008360037341B10846019101F082FA019986
:105CEC0002462046FFF7D6FF204602B010BD13B582
:105CFC00044659B10846019101F073FA0199024624
:105D0C002046FFF7C7FF204602B010BDFFF797FFF4
:105D1C00F9E710B504468AB00023C4E90033A36048
:105D2C002373084601A900F035FA01A92046FFF7B4
:105D3C00DEFF20460AB010BD30B5044600238BB000
:105D4C00C4E90033A360237310EE100ACDB200F047
:105D5C0027FD41EC100B01A92846FFF709FF01A90B
:105D6C002046FFF7C4FF20460BB030BD70B505468A
:105D7C000E4609B9002070BD6AB1846814442146EE
:105D8C00FFF774FF0028F5D02868AB68314618443B
:105D9C0001F002FAAC600120EDE710B58A680968E1
:105DAC000446FFF7E3FF10B92046FFF748FF2046F3
:105DBC0010BD10B50446006818B1FFF767F9002351
:105DCC00236010BD38B50C460546FFF7F2FF54B101
:105DDC002088FFF753F9286028B122882146BDE8B6
:105DEC00384001F095B938BD38B5B1F9043083802D
:105DFC00D1F80630C0F806304B8943810C46054675
:105E0C00FFF7D7FF236813B12B600023236038BD45
:105E1C00F0B52B4D0B7D04468BB00846AF1D002B07
:105E2C0036D00B681B79002B32D0264B0493002202
:105E3C0002A90430CDE90222FFF786F8DDF80E3016
:105E4C00C5F8063000B2BDF81230ADF80C00A880D1
:105E5C000299BB802846FFF7B5FF02A8FFF7A9FF00
:105E6C0000232360A380A37123814FF6FF7363810A
:105E7C00B5F90430A380D5F80630C4F80630BB88D9
:105E8C00296863812046FFF79DFF20460BB0F0BDCB
:105E9C0000262023CDE902360B4B009302AA334691
:105EAC000A493220FFF70CF8064B054802964FF6CC
:105EBC00F26202A9CDE90323FFF796FFCDE700BFFD
:105ECC00E0E603200000FFFFDB730B00D4730B0034
:105EDC00054B02221A60054B054A9A600020C3E963
:105EEC000000FEF7F5BF00BFECE60320E0E6032060
:105EFC000000FFFF024B1A68024B1A60704700BF8C
:105F0C0008E60320F0E6032070474174704708B59B
:105F1C00007CFEF795FF20EAE07008BD08B5007C18
:105F2C00FEF766FF20EAE07008BD08B5007CFEF7BE
:105F3C006FFF40EAE07008BD08B5007CFEF760FF1B
:105F4C0040EAE07008BD007CFEF76ABF37B5457CBF
:105F5C0004462DB1207C03B0BDE83040FEF740BFB5
:105F6C00007C0191FEF76CFF00280199F2DC2846B9
:105F7C0003B030BD10B514210446FEF788F8204656
:105F8C0010BD000010B54FF47A7304460846114654
:105F9C000022C4E90123044B2360012320746374A1
:105FAC00FEF756FF204610BD28740B004174704755
:105FBC007047704708B50021007CFEF769FF40EA86
:105FCC00E07008BD08B50121007CFEF761FF40EAD6
:105FDC00E07008BD08B5007CFEF752FF20EAE070C7
:105FEC0008BD08B5007CFEF743FF20EAE07008BD51
:105FFC0013B50446007C0191FEF742FF002801997D
:10600C0001DC607C20B1207CFEF74AFF20EAE070C6
:10601C0002B010BD007CFEF74BBF10B51421044636
:10602C00FEF735F8204610BD10B54FF47A730446D0
:10603C0008460021C4E90113044B2360012320749A
:10604C0063741146FEF70CFF204610BD58740B000C
:10605C0010B514220446002101F068F8204610BD4A
:10606C0010B50F4C88B003A8FFF7F2FF2178BFF3EF
:10607C005B8F11F001010FD120460191FEF709F859
:10608C00019948B103AA0748FFF7CEFF2046FEF757
:10609C0005F8054801F036F8024808B010BD00BFFD
:1060AC00F4E60320F8E60320BD5F0B0000224068F5
:1060BC001146FEF79BBF002240681146FEF7B6BFA3
:1060CC00002240681146FEF7C1BF40680022FEF76F
:1060DC00B5BF4068002281F00101FEF79FBF00238D
:1060EC0040681A461946FEF791BF002340681A46CD
:1060FC001946FEF783BF002240681146FEF766BFC3
:10610C00406800220221FEF769BF002340681A464E
:10611C00FEF754BF024B04225A60024A1A607047C1
:10612C000CE7032088740B0010B5044601F059F8F5
:10613C00013823182046834206D90278197800F8D2
:10614C00011B03F80129F6E710BD70B50C46911E32
:10615C0022291DD8254630B9234430229D4210D225
:10616C0005F8012BFAE7B0FBF2F602FB1600C1B200
:10617C00092894BF30315731C9B205F8011B30469C
:10618C00E9E7002320462B70FFF7CEFF204670BDB9
:10619C000020FCE738B5031E0C4615460EDAB3F1A9
:1061AC00004F4FF02D0214BF5842184601230A70BD
:1061BC002A461944FFF7C9FF204638BD0123F9E7E9
:1061CC00014B1860704700BF0CE6032008B50B4B61
:1061DC0043B1FFF745FF03681B699847002801DDB1
:1061EC00AFF30080064B43B100F04AF903681B691A
:1061FC009847002801DDAFF3008008BD00000000C7
:10620C000000000008B5FFF7E1FFFEF741FD014B70
:10621C00186008BD28E703200548064A064908B55A
:10622C00121A00F075FF054B054A1A6008BD00BF35
:10623C0000F4032004F403208C750B0000F40320FD
:10624C001E1C279A07B5002300931A466FF077019E
:10625C00FEF770FE03B05DF804FB000007B5438841
:10626C000A2B08D0502B0BD1094B1B684BB103B038
:10627C005DF804EB1847FFF7E5FF03B05DF804FB8E
:10628C00002300931A466FF07701FEF753FEF4E7F4
:10629C0018E7032010B512480021FEF71FFF114B21
:1062AC001A68114B9A42114B0CBF012200221A7032
:1062BC0001D0FFF7B1FFFEF7DBFC044600F03EFF18
:1062CC000B4B13B12046AFF3008000210848FEF7BA
:1062DC0065FEBDE8104007480021FEF721BE00BF57
:1062EC00CD610B0000F403201E1C279A14E7032039
:1062FC000000000069620B00232813B502D90020AE
:10630C0002B010BDA0F10B03022B1AD8174C217848
:10631C00BFF35B8F11F001010BD120460191FDF70A
:10632C00B8FE019928B11248FFF718FC2046FDF77A
:10633C00B5FE0F4B1878FEF74BFD0028DFD101207E
:10634C00DEE7012809D800F05BF80021007CFEF79D
:10635C0007FD80F00100C0B2D2E709380128EED861
:10636C0000F08EF8007CFEF763FDF2E71CE70320DB
:10637C0020E70320232838B504460D460AD8FF2908
:10638C0008D0FFF7B9FF28B129462046BDE83840B0
:10639C00FEF786BC38BD38B504460D46FEF788FCC2
:1063AC00FF2810D0062804D84D2323FA00F0C30789
:1063BC0009D42046FFF7A0FF28B129462046BDE8A6
:1063CC003840FEF77DBC38BD7047000038B50A4B2D
:1063DC0003600123044643610849202000F076F84D
:1063EC00202560600549A560284600F06FF8C4E9D7
:1063FC000305204638BD00BF18000100BC740B001B
:10640C0030B50E4D2978BFF35B8F11F0010487B0C6
:10641C0011D12846FDF73DFE68B16846FFF7D6FF5F
:10642C006A4621460648FFF7B7F92846FDF736FEBF
:10643C00044800F067FE024807B030BD2CE703208B
:10644C0030E70320D5630B007047000038B50446D5
:10645C0014252A46002100F069FE258040250749B5
:10646C0025812846258200F031F8044960602846D1
:10647C0000F02CF8E060204638BD00BFBC740B0067
:10648C0030B50E4D2978BFF35B8F11F0010487B046
:10649C0011D12846FDF7FDFD68B101A8FFF7D6FF25
:1064AC0001AA21460648FFF76DFD2846FDF7F6FDCB
:1064BC00044800F027FE024807B030BD44E7032033
:1064CC0048E7032055640B00FDF7DDBDFDF7DDBD8E
:1064DC0008B5FEF7EBFD000081F0004102E000BFC3
:1064EC0083F0004330B54FEA41044FEA430594EA88
:1064FC00050F08BF90EA020F1FBF54EA000C55EAC3
:10650C00020C7FEA645C7FEA655C00F0E2804FEA93
:10651C005454D4EB5555B8BF6D420CDD2C4480EA75
:10652C00020281EA030382EA000083EA010180EAA5
:10653C00020281EA0303362D88BF30BD11F0004FF3
:10654C004FEA01314FF4801C4CEA113102D0404229
:10655C0061EB410113F0004F4FEA03334CEA133364
:10656C0002D0524263EB430394EA050F00F0A7807C
:10657C00A4F10104D5F1200E0DDB02FA0EFC22FA77
:10658C0005F2801841F1000103FA0EF2801843FA6B
:10659C0005F359410EE0A5F120050EF1200E012A5C
:1065AC0003FA0EFC28BF4CF0020C43FA05F3C0189A
:1065BC0051EBE37101F0004507D54FF0000EDCF113
:1065CC00000C7EEB00006EEB0101B1F5801F1BD3BC
:1065DC00B1F5001F0CD349085FEA30004FEA3C0CC0
:1065EC0004F101044FEA445212F5800F80F09A80B6
:1065FC00BCF1004F08BF5FEA500C50F1000041EBBA
:10660C00045141EA050130BD5FEA4C0C404141EBBD
:10661C000101013C28BFB1F5801FE9D291F0000FB8
:10662C0004BF01460020B1FA81F308BF2033A3F167
:10663C000B03B3F120020CDA0C3208DD02F1140C5E
:10664C00C2F10C0201FA0CF021FA02F10CE002F199
:10665C001402D8BFC2F1200C01FA02F120FA0CFC92
:10666C00DCBF41EA0C019040E41AA2BF01EB0451DB
:10667C00294330BD6FEA04041F3C1CDA0C340EDCD9
:10668C0004F11404C4F1200220FA04F001FA02F31C
:10669C0040EA030021FA04F345EA030130BDC4F1DA
:1066AC000C04C4F1200220FA02F001FA04F340EACF
:1066BC000300294630BD21FA04F0294630BD94F080
:1066CC00000F83F4801306BF81F480110134013D67
:1066DC004EE77FEA645C18BF7FEA655C29D094EAD8
:1066EC00050F08BF90EA020F05D054EA000C04BF56
:1066FC001946104630BD91EA030F1EBF0021002041
:10670C0030BD5FEA545C05D14000494128BF41F0DF
:10671C00004130BD14F580043CBF01F5801130BD43
:10672C0001F0004545F0FE4141F470014FF00000CE
:10673C0030BD7FEA645C1ABF194610467FEA655C7F
:10674C001CBF0B46024650EA013406BF52EA033521
:10675C0091EA030F41F4002130BD00BF90F0000F0F
:10676C0004BF0021704730B54FF4806404F132044B
:10677C004FF000054FF0000150E700BF90F0000F04
:10678C0004BF0021704730B54FF4806404F132042B
:10679C0010F0004548BF40424FF000013EE700BFFB
:1067AC0042004FEAE2014FEA31014FEA02701FBF8B
:1067BC0012F07F4393F07F4F81F06051704732F0BD
:1067CC007F4208BF704793F07F4F04BF41F4002114
:1067DC00704730B54FF4607401F0004521F0004172
:1067EC001CE700BF50EA010208BF704730B54FF0FC
:1067FC0000050AE050EA010208BF704730B511F0FD
:10680C00004502D5404261EB41014FF4806404F134
:10681C0032045FEA915C3FF4D8AE4FF003025FEABA
:10682C00DC0C18BF03325FEADC0C18BF033202EB3E
:10683C00DC02C2F1200300FA03FC20FA02F001FA98
:10684C0003FE40EA0E0021FA02F11444BDE600BF3B
:10685C0070B54FF0FF0C4CF4E06C1CEA11541DBFEA
:10686C001CEA135594EA0C0F95EA0C0F00F0DEF8B5
:10687C002C4481EA030621EA4C5123EA4C5350EA9A
:10688C00013518BF52EA033541F4801143F48013EB
:10689C0038D0A0FB02CE4FF00005E1FB02E506F07C
:1068AC000042E0FB03E54FF00006E1FB03569CF0D1
:1068BC00000F18BF4EF0010EA4F1FF04B6F5007FD7
:1068CC0064F5407404D25FEA4E0E6D4146EB060649
:1068DC0042EAC62141EA55514FEAC52040EA5E50D2
:1068EC004FEACE2EB4F1FD0C88BFBCF5E06F1ED87C
:1068FC00BEF1004F08BF5FEA500E50F1000041EBB3
:10690C00045170BD06F0004646EA010140EA02005F
:10691C0081EA0301B4EB5C04C2BFD4EB0C0541EA81
:10692C00045170BD41F480114FF0000E013C00F396
:10693C00AB8014F1360FDEBF002001F0004170BDBA
:10694C00C4F10004203C35DA0C341BDC04F11404D3
:10695C00C4F1200500FA05F320FA04F001FA05F25F
:10696C0040EA020001F0004221F0004110EBD3702C
:10697C0021FA04F642EB06015EEA430E08BF20EA58
:10698C00D37070BDC4F10C04C4F1200500FA04F3FB
:10699C0020FA05F001FA04F240EA020001F000418D
:1069AC0010EBD37041F100015EEA430E08BF20EA00
:1069BC00D37070BDC4F1200500FA05F24EEA020E48
:1069CC0020FA04F301FA05F243EA020321FA04F077
:1069DC0001F0004121FA04F220EA020000EBD3702E
:1069EC005EEA430E08BF20EAD37070BD94F0000F2E
:1069FC000FD101F00046400041EB010111F4801F62
:106A0C0008BF013CF7D041EA060195F0000F18BF12
:106A1C00704703F00046520043EB030313F4801F4E
:106A2C0008BF013DF7D043EA0603704794EA0C0F08
:106A3C000CEA135518BF95EA0C0F0CD050EA41061E
:106A4C0018BF52EA4306D1D181EA030101F000419B
:106A5C004FF0000070BD50EA410606BF10461946C3
:106A6C0052EA430619D094EA0C0F02D150EA0136CF
:106A7C0013D195EA0C0F05D152EA03361CBF104610
:106A8C0019460AD181EA030101F0004141F0FE41AF
:106A9C0041F470014FF0000070BD41F0FE4141F433
:106AAC00780170BD70B54FF0FF0C4CF4E06C1CEA33
:106ABC0011541DBF1CEA135594EA0C0F95EA0C0FE8
:106ACC0000F0A7F8A4EB050481EA030E52EA0335A3
:106ADC004FEA013100F088804FEA03334FF08055C4
:106AEC0045EA131343EA12634FEA022245EA1115F1
:106AFC0045EA10654FEA00260EF000419D4208BFA2
:106B0C00964244F1FD0404F5407402D25B084FEA4E
:106B1C003202B61A65EB03055B084FEA32024FF4FA
:106B2C0080104FF4002CB6EB020E75EB030E22BF57
:106B3C00B61A754640EA0C005B084FEA3202B6EB17
:106B4C00020E75EB030E22BFB61A754640EA5C00C6
:106B5C005B084FEA3202B6EB020E75EB030E22BF56
:106B6C00B61A754640EA9C005B084FEA3202B6EB57
:106B7C00020E75EB030E22BFB61A754640EADC0016
:106B8C0055EA060E18D04FEA051545EA16754FEA78
:106B9C0006164FEAC30343EA52734FEAC2025FEA96
:106BAC001C1CC0D111F4801F0BD141EA00014FF025
:106BBC0000004FF0004CB6E711F4801F04BF0143F6
:106BCC000020B4F1FD0C88BFBCF5E06F3FF6AFAE12
:106BDC00B5EB030C04BFB6EB020C5FEA500C50F1A2
:106BEC00000041EB045170BD0EF0004E4EEA113125
:106BFC0014EB5C04C2BFD4EB0C0541EA045170BD2C
:106C0C0041F480114FF0000E013C90E645EA060E6F
:106C1C008DE60CEA135594EA0C0F08BF95EA0C0F9D
:106C2C003FF43BAF94EA0C0F0AD150EA01347FF4E5
:106C3C0034AF95EA0C0F7FF425AF104619462CE7BC
:106C4C0095EA0C0F06D152EA03353FF4FDAE10461F
:106C5C00194622E750EA410618BF52EA43067FF470
:106C6C00C5AE50EA41047FF40DAF52EA43057FF400
:106C7C00EBAE12E74FF0FF3C06E000BF4FF0010C0B
:106C8C0002E000BF4FF0010C4DF804CD4FEA410C6F
:106C9C007FEA6C5C4FEA430C18BF7FEA6C5C1BD03C
:106CAC0001B050EA410C0CBF52EA430C91EA030FBD
:106CBC0002BF90EA020F0020704710F1000F91EA1A
:106CCC00030F58BF994208BF90422CBFD8176FEAE8
:106CDC00E37040F0010070474FEA410C7FEA6C5CB6
:106CEC0002D150EA013C07D14FEA430C7FEA6C5CBD
:106CFC00D6D152EA033CD3D05DF8040B704700BFE9
:106D0C008446104662468C461946634600E000BF36
:106D1C0001B5FFF7B7FF002848BF10F1000F01BD08
:106D2C004DF808EDFFF7F4FF0CBF012000205DF8D3
:106D3C0008FB00BF4DF808EDFFF7EAFF34BF012058
:106D4C0000205DF808FB00BF4DF808EDFFF7E0FFF1
:106D5C0094BF012000205DF808FB00BF4DF808ED42
:106D6C00FFF7CEFF94BF012000205DF808FB00BFA9
:106D7C004DF808EDFFF7C4FF34BF012000205DF88B
:106D8C0008FB00BF4A0011D212F5001211D20DD52A
:106D9C006FF47873B3EB62520ED44FEAC12343F015
:106DAC00004343EA505323FA02F070474FF00000BF
:106DBC00704750EA013002D14FF0FF3070474FF06E
:106DCC000000704753B94AB9002908BF00281CBFFE
:106DDC004FF0FF314FF0FF3000F092B9ADF1080CDD
:106DEC006DE904CE00F024F8DDF804E0DDE90223BF
:106DFC0004B07047D0B50C4B002206460F46FFF787
:106E0C0027FDFFF7BFFF0446FFF7A8FC074B002246
:106E1C00FFF71EFD02460B4630463946FFF760FB76
:106E2C00FFF7B0FF2146D0BD0000F03D0000F0415F
:106E3C002DE9F047089D04468E46002B4DD18A4221
:106E4C00944669D9B2FA82F252B101FA02F3C2F154
:106E5C00200120FA01F10CFA02FC41EA030E9440E5
:106E6C004FEA1C48210CBEFBF8F61FFA8CF708FB06
:106E7C0016E341EA034306FB07F199420AD91CEBDE
:106E8C00030306F1FF3080F01F81994240F21C8110
:106E9C00023E63445B1AA4B2B3FBF8F008FB103358
:106EAC0044EA034400FB07F7A7420AD91CEB04048D
:106EBC0000F1FF3380F00A81A74240F2078164445D
:106ECC00023840EA0640E41B00261DB1D4400023E2
:106EDC00C5E900433146BDE8F0878B4209D9002D46
:106EEC0000F0EF800026C5E9000130463146BDE8D0
:106EFC00F087B3FA83F6002E4AD18B4202D382423A
:106F0C0000F2F980841A61EB030301209E46002DE8
:106F1C00E0D0C5E9004EDDE702B9FFDEB2FA82F23D
:106F2C00002A40F09280A1EB0C014FEA1C471FFA9B
:106F3C008CFE0126200CB1FBF7F307FB131140EA82
:106F4C0001410EFB03F0884208D91CEB010103F14F
:106F5C00FF3802D2884200F2CB804346091AA4B211
:106F6C00B1FBF7F007FB101144EA01440EFB00FEE5
:106F7C00A64508D91CEB040400F1FF3102D2A6454A
:106F8C0000F2BB800846A4EB0E0440EA03409CE7E9
:106F9C00C6F12007B34022FA07FC4CEA030C20FA96
:106FAC0007F401FA06F31C43F9404FEA1C4900FAB6
:106FBC0006F3B1FBF9F8200C1FFA8CFE09FB181133
:106FCC0040EA014108FB0EF0884202FA06F20BD9A6
:106FDC001CEB010108F1FF3A80F08880884240F2F6
:106FEC008580A8F102086144091AA4B2B1FBF9F03A
:106FFC0009FB101144EA014100FB0EFE8E4508D935
:10700C001CEB010100F1FF346CD28E456AD90238B9
:10701C00614440EA0840A0FB0294A1EB0E01A1429E
:10702C00C846A64656D353D05DB1B3EB080261EB0C
:10703C000E0101FA07F722FA06F3F1401F43C5E9E6
:10704C00007100263146BDE8F087C2F12003D8401C
:10705C000CFA02FC21FA03F3914001434FEA1C475E
:10706C001FFA8CFEB3FBF7F007FB10360B0C43EA50
:10707C00064300FB0EF69E4204FA02F408D91CEB00
:10708C00030300F1FF382FD29E422DD902386344FE
:10709C009B1B89B2B3FBF7F607FB163341EA03419E
:1070AC0006FB0EF38B4208D91CEB010106F1FF38ED
:1070BC0016D28B4214D9023E6144C91A46EA0046E4
:1070CC0038E72E46284605E70646E3E61846F8E676
:1070DC004B45A9D2B9EB020864EB0C0E0138A3E7BF
:1070EC004646EAE7204694E74046D1E7D0467BE7A0
:1070FC00023B614432E7304609E76444023842E718
:10710C00704700BF002301461A46184600F072B8BB
:10711C000A44914200F1FF3300D1704710B511F8C9
:10712C00014B03F8014F9142F9D110BD02440346C3
:10713C00934200D1704703F8011BF9E738B5104BA7
:10714C001D68AB6B0446B3B91820FDF797FF0246D8
:10715C00A86320B90B4B0C484221FDF7B7FF0B4934
:10716C000B4BC0E900130B4B83600B238381002175
:10717C000120C2E90401AB6B00221C615A6138BDCD
:10718C000CE60320BD740B00D4740B000E33CDAB96
:10719C0034126DE6ECDE0500034611F8012B03F802
:1071AC00012B002AF9D17047024B0146186800F0F8
:1071BC0003B800BF0CE6032037B5044608460D465D
:1071CC0000F00FF8421C114620460192FDF776FFA5
:1071DC00044618B1019A2946FFF79AFF204603B0DE
:1071EC0030BD034613F8012B002AFBD1181A0138C5
:1071FC00704700002DE9F843DFF8B8800646D8F850
:10720C0000001F460D46914600F056F8254B1C68B1
:10721C0034B9254C1C60254B13B11B68C4F888305D
:10722C0063681F2B07DDD8F8000000F047F84FF01B
:10723C00FF30BDE8F8834EB3D4F8880088B91C4BF6
:10724C0023B9D8F8000000F038F8F0E74FF4847058
:10725C00FDF714FF0028F4D00023C0E94033C4F834
:10726C008800636840F8239001229A4000EB830168
:10727C00D0F800311343C0F80031022EC1F88070F1
:10728C0002BFD0F804311343C0F804316368D8F856
:10729C0000005A1C0233626044F8235000F00EF8D0
:1072AC000020C6E7E8E703205CE7032000000000AD
:1072BC0089500B0070E60320704770477047000040
:1072CC001D400B0059400B0081400B0085400B000A
:1072DC00000000005761746572204C6576656C3A4D
:1072EC0020004C6576656C2044697374616E63652F
:1072FC003A20000000000000000000006D510B005F
:10730C0073510B00B1510B0081510B006F510B00ED
:10731C0000000000000000002F570B0025570B0049
:10732C001B570B0011570B0005570B00F9560B00A0
:10733C00A5590B00AD590B00ED560B00E5560B0093
:10734C00DB560B00D1560B00DD590B000000000082
:10735C00000000004D570B0097570B006F570B00A8
:10736C004F570B0077570B007F570B0087570B00BD
:10737C008F570B00000000000000000073580B003A
:10738C0063580B0065580B00617070000000000022
:10739C000000000065590B006F590B0079590B0068
:1073AC0083590B008D590B0099590B00A5590B00F3
:1073BC00AD590B00B5590B00C1590B00C9590B0045
:1073CC00D3590B00DD590B00776972696E67005356
:1073DC00797374656D20736C65657020636F6E6670
:1073EC00696775726174696F6E20697320696E7656
:1073FC00616C69642E0025592D256D2D256454254D
:10740C00483A254D3A2553257A0061736374696DAA
:10741C00650000000000000000000000155F0B007C
:10742C00815F0B00595F0B00C95A0B00295F0B00E1
:10743C00455F0B00375F0B00535F0B00175F0B00B2
:10744C001B5F0B000000000000000000BF5F0B0082
:10745C0027600B00FD5F0B00C95A0B00EF5F0B00A0
:10746C00C15F0B00D15F0B0021600B00E15F0B00D3
:10747C00B95F0B00000000000000000017610B005A
:10748C000D610B0003610B00B9600B00F7600B0082
:10749C00EB600B00A5590B00AD590B00DF600B0026
:1074AC00D7600B00CD600B00C3600B00DD590B00E7
:1074BC00005245454E54206D616C6C6F63207375A2
:1074CC0063636565646564002F746D702F6A656E07
:1074DC006B696E732D4743432D31302D7069706588
:1074EC006C696E652D34385F323032303131323464
:1074FC005F313630363138303633392F7372632F73
:10750C006E65776C69622F6E65776C69622F6C693A
:10751C0062632F7374646C69622F72616E642E6384
:10752C000000000001410B005D510B0039570B00AE
:10753C0055590B00B55A0B005D5B0B00DD5E0B0063
:10754C00015F0B0021610B00000000000000000037
:04755C00000000002B
:10756000040000001400000003000000474E550016
:107570002C47564C298B8032394EE59EC7B83CB615
:0475800002F9E056D6
:08758400B8F8FF7F01000000D0
:04758C0000000000FB
:10759000C4090000A00F0000E8030000C3090000B8
:1075A000F4010000E70300000200000016740B0065
:1075B00010E60320000000000000000000000000B2
:1075C00000000000000000000000000000000000BB
:1075D00000000000000000000000000000000000AB
:1075E000000000000000000000000000000000009B
:1075F000000000000000000000000000000000008B
:10760000000000000000000000000000000000007A
:0876100000000000ECE703207C
:10761800FFFFFFFF00000102030405060708090A2F
:107628000B0C0D0E0F101112131415161718191A2A
:087638001B1C1D1E1F20280071
:047640007856341232
:04000003B000401CED
:00000001FF
