:02000004085F93
:10C0000000C05F08FCFF5F0800000600200005017B
:08C010000401B514000000005A
:10C018000E480F4908B5884205D00E4A824202D020
:10C028000D4B121A98470D480D4A00210D4B121A54
:10C0380098470D480D49884205D00D4A824202D0E2
:10C04800054B121A9847014808BD00BFACAD071050
:10C05800ECFA5F083CAE07102D0D11103CAE07102E
:10C06800E8AF0710A10E1110A0C53F0290C05F08ED
:0CC07800FCFF3F0219C05F080000000040
:08C084007C0EE07901000000D0
:08C090007CC05F0834FD3F0293
:10C0980081F0004102E000BF83F0004330B54FEA71
:10C0A80041044FEA430594EA050F08BF90EA020FDE
:10C0B8001FBF54EA000C55EA020C7FEA645C7FEA71
:10C0C800655C00F0E2804FEA5454D4EB5555B8BF94
:10C0D8006D420CDD2C4480EA020281EA030382EA05
:10C0E800000083EA010180EA020281EA0303362D97
:10C0F80088BF30BD11F0004F4FEA01314FF4801C6A
:10C108004CEA113102D0404261EB410113F0004F7B
:10C118004FEA03334CEA133302D0524263EB430332
:10C1280094EA050F00F0A780A4F10104D5F1200ED0
:10C138000DDB02FA0EFC22FA05F2801841F100012B
:10C1480003FA0EF2801843FA05F359410EE0A5F1FF
:10C1580020050EF1200E012A03FA0EFC28BF4CF030
:10C16800020C43FA05F3C01851EBE37101F00045E6
:10C1780007D54FF0000EDCF1000C7EEB00006EEBF3
:10C188000101B1F5801F1BD3B1F5001F0CD349087D
:10C198005FEA30004FEA3C0C04F101044FEA4452D4
:10C1A80012F5800F80F09A80BCF1004F08BF5FEA5B
:10C1B800500C50F1000041EB045141EA050130BD3B
:10C1C8005FEA4C0C404141EB0101013C28BFB1F54D
:10C1D800801FE9D291F0000F04BF01460020B1FA98
:10C1E80081F308BF2033A3F10B03B3F120020CDA6B
:10C1F8000C3208DD02F1140CC2F10C0201FA0CF049
:10C2080021FA02F10CE002F11402D8BFC2F1200CAD
:10C2180001FA02F120FA0CFCDCBF41EA0C01904063
:10C22800E41AA2BF01EB0451294330BD6FEA0404AC
:10C238001F3C1CDA0C340EDC04F11404C4F1200297
:10C2480020FA04F001FA02F340EA030021FA04F3A9
:10C2580045EA030130BDC4F10C04C4F1200220FA00
:10C2680002F001FA04F340EA0300294630BD21FA3E
:10C2780004F0294630BD94F0000F83F4801306BF04
:10C2880081F480110134013D4EE77FEA645C18BFF8
:10C298007FEA655C29D094EA050F08BF90EA020F8F
:10C2A80005D054EA000C04BF1946104630BD91EA87
:10C2B800030F1EBF0021002030BD5FEA545C05D18A
:10C2C8004000494128BF41F0004130BD14F58004C9
:10C2D8003CBF01F5801130BD01F0004545F0FE413D
:10C2E80041F470014FF0000030BD7FEA645C1ABF72
:10C2F800194610467FEA655C1CBF0B46024650EAA9
:10C30800013406BF52EA033591EA030F41F40021D4
:10C3180030BD00BF90F0000F04BF0021704730B55A
:10C328004FF4806404F132044FF000054FF000012F
:10C3380050E700BF90F0000F04BF0021704730B5F0
:10C348004FF4806404F1320410F0004548BF4042C5
:10C358004FF000013EE700BF42004FEAE2014FEA1A
:10C3680031014FEA02701FBF12F07F4393F07F4FF5
:10C3780081F06051704732F07F4208BF704793F0F8
:10C388007F4F04BF41F40021704730B54FF460740B
:10C3980001F0004521F000411CE700BF50EA01020E
:10C3A80008BF704730B54FF000050AE050EA0102B7
:10C3B80008BF704730B511F0004502D5404261EB27
:10C3C80041014FF4806404F132045FEA915C3FF468
:10C3D800D8AE4FF003025FEADC0C18BF03325FEA05
:10C3E800DC0C18BF033202EBDC02C2F1200300FAB6
:10C3F80003FC20FA02F001FA03FE40EA0E0021FADB
:10C4080002F11444BDE600BF70B54FF0FF0C4CF4C8
:10C41800E06C1CEA11541DBF1CEA135594EA0C0F7A
:10C4280095EA0C0F00F0DEF82C4481EA030621EAB5
:10C438004C5123EA4C5350EA013518BF52EA0335F0
:10C4480041F4801143F4801338D0A0FB02CE4FF0A2
:10C458000005E1FB02E506F00042E0FB03E54FF0D2
:10C468000006E1FB03569CF0000F18BF4EF0010ECA
:10C47800A4F1FF04B6F5007F64F5407404D25FEAC6
:10C488004E0E6D4146EB060642EAC62141EA555179
:10C498004FEAC52040EA5E504FEACE2EB4F1FD0CBB
:10C4A80088BFBCF5E06F1ED8BEF1004F08BF5FEA39
:10C4B800500E50F1000041EB045170BD06F00046EB
:10C4C80046EA010140EA020081EA0301B4EB5C0498
:10C4D800C2BFD4EB0C0541EA045170BD41F4801190
:10C4E8004FF0000E013C00F3AB8014F1360FDEBFB5
:10C4F800002001F0004170BDC4F10004203C35DA91
:10C508000C341BDC04F11404C4F1200500FA05F313
:10C5180020FA04F001FA05F240EA020001F00042B4
:10C5280021F0004110EBD37021FA04F642EB06012A
:10C538005EEA430E08BF20EAD37070BDC4F10C0454
:10C54800C4F1200500FA04F320FA05F001FA04F218
:10C5580040EA020001F0004110EBD37041F1000104
:10C568005EEA430E08BF20EAD37070BDC4F120050F
:10C5780000FA05F24EEA020E20FA04F301FA05F277
:10C5880043EA020321FA04F001F0004121FA04F21F
:10C5980020EA020000EBD3705EEA430E08BF20EAEF
:10C5A800D37070BD94F0000F0FD101F00046400029
:10C5B80041EB010111F4801F08BF013CF7D041EAAB
:10C5C800060195F0000F18BF704703F000465200AF
:10C5D80043EB030313F4801F08BF013DF7D043EA80
:10C5E8000603704794EA0C0F0CEA135518BF95EA36
:10C5F8000C0F0CD050EA410618BF52EA4306D1D1BD
:10C6080081EA030101F000414FF0000070BD50EADB
:10C61800410606BF1046194652EA430619D094EA65
:10C628000C0F02D150EA013613D195EA0C0F05D14F
:10C6380052EA03361CBF104619460AD181EA0301A3
:10C6480001F0004141F0FE4141F470014FF000005B
:10C6580070BD41F0FE4141F4780170BD70B54FF0F6
:10C66800FF0C4CF4E06C1CEA11541DBF1CEA135576
:10C6780094EA0C0F95EA0C0F00F0A7F8A4EB050458
:10C6880081EA030E52EA03354FEA013100F088804F
:10C698004FEA03334FF0805545EA131343EA126318
:10C6A8004FEA022245EA111545EA10654FEA0026CD
:10C6B8000EF000419D4208BF964244F1FD0404F586
:10C6C800407402D25B084FEA3202B61A65EB0305E2
:10C6D8005B084FEA32024FF480104FF4002CB6EB9F
:10C6E800020E75EB030E22BFB61A754640EA0C001F
:10C6F8005B084FEA3202B6EB020E75EB030E22BF5F
:10C70800B61A754640EA5C005B084FEA3202B6EB9F
:10C71800020E75EB030E22BFB61A754640EA9C005E
:10C728005B084FEA3202B6EB020E75EB030E22BF2E
:10C73800B61A754640EADC0055EA060E18D04FEAEC
:10C74800051545EA16754FEA06164FEAC30343EA8C
:10C7580052734FEAC2025FEA1C1CC0D111F4801F59
:10C768000BD141EA00014FF000004FF0004CB6E752
:10C7780011F4801F04BF01430020B4F1FD0C88BFF1
:10C78800BCF5E06F3FF6AFAEB5EB030C04BFB6EBFC
:10C79800020C5FEA500C50F1000041EB045170BDEF
:10C7A8000EF0004E4EEA113114EB5C04C2BFD4EB1C
:10C7B8000C0541EA045170BD41F480114FF0000EA0
:10C7C800013C90E645EA060E8DE60CEA135594EA1C
:10C7D8000C0F08BF95EA0C0F3FF43BAF94EA0C0F1F
:10C7E8000AD150EA01347FF434AF95EA0C0F7FF494
:10C7F80025AF104619462CE795EA0C0F06D152EAE8
:10C8080003353FF4FDAE1046194622E750EA4106CB
:10C8180018BF52EA43067FF4C5AE50EA41047FF4DC
:10C828000DAF52EA43057FF4EBAE12E74FF0FF3C41
:10C8380006E000BF4FF0010C02E000BF4FF0010C12
:10C848004DF804CD4FEA410C7FEA6C5C4FEA430C8B
:10C8580018BF7FEA6C5C1BD001B050EA410C0CBFDA
:10C8680052EA430C91EA030F02BF90EA020F00203C
:10C87800704710F1000F91EA030F58BF994208BFA3
:10C8880090422CBFD8176FEAE37040F00100704760
:10C898004FEA410C7FEA6C5C02D150EA013C07D1B7
:10C8A8004FEA430C7FEA6C5CD6D152EA033CD3D002
:10C8B8005DF8040B704700BF8446104662468C46FC
:10C8C8001946634600E000BF01B5FFF7B7FF00282F
:10C8D80048BF10F1000F01BD4DF808EDFFF7F4FF58
:10C8E8000CBF012000205DF808FB00BF4DF808EDE3
:10C8F800FFF7EAFF34BF012000205DF808FB00BF06
:10C908004DF808EDFFF7E0FF94BF012000205DF827
:10C9180008FB00BF4DF808EDFFF7CEFF94BF0120DC
:10C9280000205DF808FB00BF4DF808EDFFF7C4FFD5
:10C9380034BF012000205DF808FB00BF4A0011D277
:10C9480012F5001211D20DD56FF47873B3EB625261
:10C958000ED44FEAC12343F0004343EA505323FA6D
:10C9680002F070474FF00000704750EA013002D1E2
:10C978004FF0FF3070474FF00000704753B94AB985
:10C98800002908BF00281CBF4FF0FF314FF0FF30CF
:10C9980000F0A0B9ADF1080C6DE904CE00F024F860
:10C9A800DDF804E0DDE9022304B07047D0B50022C9
:10C9B8000B4B06460F46FFF727FDFFF7BFFF044660
:10C9C800FFF7A8FC0022074BFFF71EFD02460B46A7
:10C9D80030463946FFF760FBFFF7B0FF2146D0BD70
:10C9E8000000F03D0000F0412DE9F04F099D04469C
:10C9F8000F46002B48D18A42944661D9B2FA82F395
:10CA080043B1C3F120019F4002FA03FC9C4020FA85
:10CA180001F10F434FEA1C411FFA8CFE220CB7FBB1
:10CA2800F1F601FB167706FB0EF042EA0742904248
:10CA380008D91CEB020206F1FF3702D2904200F23D
:10CA480037813E46121AA4B2B2FBF1F001FB102264
:10CA580000FB0EFE44EA0244A64508D91CEB040478
:10CA680000F1FF3202D2A64500F21C81104640EACE
:10CA78000640A4EB0E0400261DB1DC400023C5E9E6
:10CA880000433146BDE8F08F8B4209D9002D00F0F4
:10CA9800FD800026C5E9000130463146BDE8F08F2B
:10CAA800B3FA83F6002E4BD18B42C0F0F28082425B
:10CAB80040F2EF803046002DE3D0C5E90047E0E7BB
:10CAC80002B9FFDEB2FA82F3002B40F09D80891A8A
:10CAD8004FEA124E97B20126200CB1FBFEF20EFB74
:10CAE800121140EA014107FB02F088420FD91CEB02
:10CAF800010102F1FF382CBF4FF001094FF0000986
:10CB0800884203D9B9F1000F00F0CF804246091AD4
:10CB1800A4B2B1FBFEF00EFB101100FB07F744EACC
:10CB28000144A74208D91CEB040400F1FF3102D2EA
:10CB3800A74200F2B4800846E41B40EA02409BE7A3
:10CB4800C6F12007B34001FA06F422FA07FCF940BF
:10CB5800B2404CEA030C20FA07F34FEA1C491C4385
:10CB68001FFA8CFE00FA06F3200CB1FBF9F809FB5A
:10CB7800181140EA014108FB0EF088420FD91CEB5E
:10CB8800010108F1FF3A2CBF4FF0010B4FF0000BE9
:10CB9800884203D9BBF1000F00F08D80D046091AF6
:10CBA800A4B2B1FBF9F009FB101100FB0EFE44EA38
:10CBB80001418E4507D91CEB010100F1FF3401D278
:10CBC8008E457FD8204640EA0840A1EB0E01A0FB25
:10CBD800029841454C46C64602D306D14B4504D27D
:10CBE8000138B9EB020468EB0C0E002D70D01A1B4B
:10CBF80061EB0E0122FA06F301FA07F7F14000266D
:10CC08001F43C5E900713CE702FA03FCC3F12000A9
:10CC180001FA03F221FA00F64FEA1C4E24FA00F159
:10CC28001FFA8CF79C401143B6FBFEF00A0C0EFB72
:10CC3800106642EA064200FB07F696420ED91CEB44
:10CC4800020200F1FF382CBF4FF001094FF0000934
:10CC5800964202D9B9F1000F31D04046921B89B2F1
:10CC6800B2FBFEF60EFB162241EA024106FB07F272
:10CC78008A4207D91CEB010106F1FF3801D28A422A
:10CC880023D84646891A46EA004625E72E4628460E
:10CC9800F7E6841A61EB030301201F460BE764449F
:10CCA800023849E764440238E1E6023A61442EE773
:10CCB800023E6244C6E6A8F1020861446FE7023802
:10CCC8006244CBE7023861447DE7023E6144D9E71C
:10CCD8002E46D6E6704700BF034613F8012B002AFC
:10CCE800FBD1181A0138704770B502F021FB0025F6
:10CCF800054E064CA41BA408AC4200D170BD56F8E2
:10CD0800043B98470135F7E7D8FF3F02FCFF3F0295
:10CD180000F016B808B500F00FFABDE8084002F0B8
:10CD2800BFBA01F0C3B901F0C1B901F0CDB90078BB
:10CD3800B0FA80F040097047012303707047000083
:10CD480010B50C4C02F0AAFB01F088FD20880121E7
:10CD580002F05EFB2088084C002102F06AFB208864
:10CD6800012102F055FB20880021BDE8104002F0A7
:10CD780060BB00BFCCAD0710C8AD071038B504685C
:10CD880005467CB16368013B63605BB92368204654
:10CD98009B689847A368013BA3601BB9236820469A
:10CDA800DB689847284638BD38B5002401250A4B6A
:10CDB8000A4A1C700A4B02201D700A4BC3E9004442
:10CDC8009A6000F0EBFF2846214601F003F8BDE821
:10CDD8003840054800F0C6B948AE07100000FFFF0C
:10CDE80049AE07103CAE071050AE0710F0B52DED58
:10CDF800028B8B4E8B4D8DB00121308802F019FBD0
:10CE08000121288802F015FB02F048FB864901F051
:10CE180021FD0121854800F0D2FC0121834800F062
:10CE2800CEFC834B02461B788DF800303C2338B982
:10CE380008A8804901F01CFB09A8FFF79FFFFEE73F
:10CE480000227D4908A801F013FB09A8FFF796FF07
:10CE58000221764800F03AFC4CF25031734800F059
:10CE6800B7FB3221714800F03EFA64249FED738AC3
:10CE78006E4F0121384600F057FB07EE900AB8EED6
:10CE8800C88AF8EEE77A78EE277A013CBDEEE78AA1
:10CE9800EFD19FED6B7A6B4B87EE878AD3ED007AE3
:10CEA800F8EEE77AF4EEC87AF1EE10FA664C2ADB6F
:10CEB800664BD3ED007AF8EEE77AF4EEC87AF1EE35
:10CEC80010FA20D801233220236001F051F930886C
:10CED8005F4E002102F0ADFA226833689A4200F0F2
:10CEE800918001F003F80346002847D1594F0246C4
:10CEF8000146786801F06AF8384601F08DFD80BB7C
:10CF080000F0D8FFF8E7544BD3ED007AF8EEE77A53
:10CF1800F4EEC87AF1EE10FA0BDB504BD3ED007A41
:10CF2800F8EEE77AF4EEC87AF1EE10FA01D80223A7
:10CF3800C9E74B4BD3ED007AF8EEE77AF4EEC87AFE
:10CF4800F1EE10FA0BDB474BD3ED007AF8EEE77AF7
:10CF5800F4EEC87AF1EE10FA01D80323B3E70423FC
:10CF6800B1E73C4801F058FD00F0B2FF00F0BEFF09
:10CF780010B900F09FFFF9E700F0B8FF00F0B6FF26
:10CF880000283FD0384908A801F0DDFE0A222168B0
:10CF980004A801F0FEFE04A908A801F03EFF334FE3
:10CFA80000223B7801688DF8003002A83C2301F08C
:10CFB8005FFA03A8FFF7E2FE04A801F079FE08A8CB
:10CFC80001F076FE2A4908A801F0BDFEB0EE480A35
:10CFD800062104A801F0F0FE04A908A801F01DFF2D
:10CFE8003B78016800228DF8003002A83C2301F04C
:10CFF8003FFA03A8FFF7C2FE04A801F059FE08A8EB
:10D0080001F056FE23683220336001F0B1F80021A8
:10D0180028880DB0BDEC028BBDE8F04002F009BADB
:10D02800CCAD0710C8AD0710801A060050AE071027
:10D0380048AE071044FD3F0278FD3F0200000000A3
:10D048000000C842B4AD07107CAE0710B0AD0710A1
:10D058004CAE0710D4AE0710BCAD0710B8AD071022
:10D06800C4AD0710C0AD071086FD3F0249AE0710DA
:10D0780094FD3F0241F28833032230B58BB0CDE9ED
:10D088000423012304A8ADF8183001F0F4F800F0E7
:10D098002DFF044610B100F00DFFF8E7244D00F015
:10D0A80025FF234622462146686800F09DFF284652
:10D0B80001F0B6FC10B900F0FDFEF8E71C4801F0DD
:10D0C800AFFC322001F054F805AB049301238DF82E
:10D0D8002430032300211020ADF816300223CDE9B7
:10D0E80006110891ADF814008DF8183000F0B8FE5C
:10D0F80088B98DF8240001A804A901F0C9FE019897
:10D1080008B100F0E1FF089880B18468002100F0C0
:10D11800B5FE2046F8E7074B036004238380089B8D
:10D1280083604EF66023C3600890E4E70BB030BD1F
:10D13800D4AE07101000030008B5FFF757FEBDE88E
:10D148000840FFF797BF10B50446C08B48B100F000
:10D158002DFC628CE38B821A90B283422CBF002094
:10D16800012010BD10B5044602F098F92923237751
:10D178000023E38384F820304FF04073A061A3625A
:10D18800204610BD70B504460D461646017F8069DD
:10D1980001F096FBA069290A03689B689847A06973
:10D1A800E9B203689B689847A069314603689B68A1
:10D1B8009847A06901F08CFB207370BD70B50446D8
:10D1C8000E461546017F806901F07AFBA069310A95
:10D1D80003689B689847A069F1B203689B68984701
:10D1E800A069290A03689B689847A069E9B203689F
:10D1F8009B689847A06901F06BFB207370BD70B500
:10D2080004460E461546017F806901F059FBA06966
:10D21800310A03689B689847A069F1B203689B6864
:10D228009847A069290E03689B689847A069C5F3C9
:10D23800074103689B689847A069C5F307210368FD
:10D248009B689847A069E9B203689B689847A069FA
:10D2580001F03EFB207370BD38B504460D46017FD2
:10D26800806901F02DFBA069290A03689B6898472B
:10D27800A069E9B203689B689847A06901F028FB98
:10D288000122217F2073A06901F017FBA0690368C0
:10D298005B699847C0B238BD38B504460D46017F72
:10D2A800806901F00DFBA069290A03689B6898470B
:10D2B800A069E9B203689B689847A06901F008FB78
:10D2C8000222217F2073A06901F0F7FAA0690368A0
:10D2D8005B6998470546A06903685B69984740EA17
:10D2E800052080B238BD10B50446C28C4A436C2173
:10D2F800FFF785FF204601228621FFF743FF2046DE
:10D30800BDE8104040228721FFF73CBF10B50B2134
:10D318000446FFF7A1FF082184F829002046FFF7FB
:10D328009BFF94F8292084F82A000B21204602F05C
:10D338007F02FFF727FF94F82A20204602F0030215
:10D3480008210C32FFF71EFF012220464D21FFF76E
:10D3580019FFD8212046FFF77FFF472102462046C4
:10D36800BDE81040FFF70EBF10B50446017F806985
:10D3780001F0A6FAA069002103689B689847A06994
:10D38800892103689B689847A06901F0A1FA1122D6
:10D39800217F2073A06901F090FAA06903685B6996
:10D3A8009847A073A06903685B699847A0690368F8
:10D3B8005B699847E073A06903685B699847000256
:10D3C8002082A06903685B699847238A18432082F2
:10D3D800A06903685B699847A06903685B69984717
:10D3E800A06903685B69984700026082A0690368C6
:10D3F8005B699847638A18436082A06903685B6920
:10D408009847A06903685B699847A06903685B69E6
:10D418009847A06903685B699847A06903685B69D6
:10D4280098470002A082A06903685B699847A38AAD
:10D438001843A082A06903685B6998470002E082EC
:10D44800A06903685B699847E38A1843E08210BDC6
:10D4580030B4048A0346D4B14FF6FF75428AC18AB4
:10D468001144A94228BF2946B4EB014F4FEA0142B3
:10D478000DD8B2FBF4F24FF02063B3FBF2F2AA42EC
:10D4880028BF2A46542192B230BCFFF797BE4FF40A
:10D49800004254211846F7E740F2DB72838A53436F
:10D4A80003F58063DB0A0380837B013B112B37D8AC
:10D4B800DFE803F00909092624282A2E3036362CFD
:10D4C80020363636092205238370C38ADFED156AB4
:10D4D80007EE103A438AB8EE477A07EE903AF8EE2C
:10D4E800677A27EE267A67EEA67A80ED017AC0ED94
:10D4F800027A70470D23E7E70A23E5E70423E3E709
:10D508000223E1E70123DFE70723DDE70923DBE760
:10D518000323D9E7C37B0BB90623D5E70023D3E759
:10D52800FF23D1E70000003C38B50446A1B100F064
:10D538003DFA608431212046FFF78EFEC04310F08B
:10D54800010509D12046FFF7FEFD0028F2D001238E
:10D55800284684F8203038BD2046FFF705FF94F8A8
:10D5680028302BB92046FFF7D1FE012384F8283054
:10D578002046FFF76DFF2046FFF78EFF8621012228
:10D58800FFF700FE2088E6E7C3B2000A03FA00F0BE
:10D598000130704760B10023013830F0FF019AB2C2
:10D5A80003F1010301D04008F7E740EA022080B206
:10D5B8007047838C4FF08040B0FBF3F04FF410635A
:10D5C80058438309481C4000C0B25843800970473B
:10D5D80041F2B01399422DE9F041054656D92C4B3A
:10D5E800A1F58D54103C9C4250D86021FFF734FEC1
:10D5F80001462846FFF7DDFF470807F57A12B2FB18
:10D60800F0F2FF2A28BFFF2206464B21D2B2284655
:10D61800FFF7B8FD07F58050B0FBF6F0FFF7BAFF4B
:10D62800640802465A2128464FEA043807EB0434B6
:10D63800FFF7C4FDB4FBF6F0FFF7ACFF5E2102462E
:10D648002846FFF7BBFD63212846FFF705FE014684
:10D658002846FFF7AEFF0446460806F58050B0FBA3
:10D66800F4F0FFF797FF5C2102462846FFF7A6FD76
:10D6780008EB0600B0FBF4F0FFF78CFF61210246CF
:10D688002846FFF79BFD0120BDE8F0810020FBE75D
:10D69800E0C8100038B560210546FFF7DDFD0146FA
:10D6A8002846FFF786FF5E2104462846FFF7F4FD6B
:10D6B800FFF76AFF00224FF40063E4FB0032180B07
:10D6C80040EA025000F6D800400038BD70B50D465B
:10D6D8000446FFF7DFFF012D06462ED0022D4CD061
:10D6E800002D6AD1072260212046FFF74BFD052255
:10D6F80063212046FFF746FD382269212046FFF7BF
:10D7080041FD072278212046FFF73CFD05227921BB
:10D718002046FFF737FD06227A212046FFF732FD23
:10D7280006227B212046FFF72DFD31462046FFF7D4
:10D738004FFF012084F82B5070BD0B22602120463A
:10D74800FFF720FD092263212046FFF71BFD782201
:10D7580069212046FFF716FD0B2278212046FFF7A6
:10D7680011FD092279212046FFF70CFD0A227A21B2
:10D778002046FFF707FD0A22D3E70F226021204643
:10D78800FFF700FD0D2263212046FFF7FBFCB822BE
:10D7980069212046FFF7F6FC0F2278212046FFF783
:10D7A800F1FC0D2279212046FFF7ECFC0E227A21AC
:10D7B8002046FFF7E7FC0E22B3E70020BCE738B5A8
:10D7C8000D4640F20F110446FFF766FD4EF6CC23D6
:10D7D800984240F0BE80002220461146FFF7D2FC56
:10D7E800642000F0D5F8012200212046FFF7CAFC8A
:10D7F800012000F0BDFC00F0D9F86084E521204646
:10D80800FFF72AFDC30740F19B80237B002B40F0E4
:10D81800978055B12E212046FFF71EFD40F00100EC
:10D82800C2B22E212046FFF7ADFC06212046FFF7A5
:10D8380033FDDE21A0842046FFF72EFD4FF4206241
:10D848002421E0842046FFF7B9FC0222312120463A
:10D85800FFF798FC082236212046FFF793FC102298
:10D8680037212046FFF78EFC012239212046FFF799
:10D8780089FCFF223E212046FFF784FC00223F213D
:10D888002046FFF77FFC022240212046FFF77AFC62
:10D89800002250212046FFF791FC00225221204609
:10D8A800FFF78CFC382257212046FFF76BFC4FF41A
:10D8B800B47264212046FFF781FCC022662120460D
:10D8C800FFF77CFC012271212046FFF75BFC012257
:10D8D8007C212046FFF756FC02227E212046FFF7D6
:10D8E80051FC002282212046FFF74CFC01227721BF
:10D8F8002046FFF747FC8B2281212046FFF742FC98
:10D908004FF4484254212046FFF758FC02224F2189
:10D918002046FFF737FC02212046FFF7D7FE4CF2DE
:10D9280050312046FFF754FE22212046FFF7B4FC71
:10D93800800082B21E212046FFF740FC012038BD3E
:10D948002046FFF700FC00283FF458AF012384F875
:10D9580020300020F3E7000009B504480068044BB4
:10D9680003441B685B6C029309BD0000ACAD071053
:10D978003000000009B504480068044B03441B68E4
:10D988005B68029309BD0000ACAD07100000000001
:10D9980009B504480068044B03441B68DB6802931C
:10D9A80009BD0000ACAD07100000000009B504482F
:10D9B8000068044B03441B685B69029309BD0000BF
:10D9C800ACAD07100000000009B504480068044B1E
:10D9D80003441B689B68029309BD0000ACAD0710A7
:10D9E8001400000009B504480068044B03441B6890
:10D9F800DB68029309BD0000ACAD071014000000FD
:10DA080009B504480068044B03441B681B6902936A
:10DA180009BD0000ACAD07101400000009B50448AA
:10DA28000068044B03441B681B68029309BD00008F
:10DA3800ACAD07101000000009B504480068044B9D
:10DA480003441B68DB68029309BD0000ACAD0710F6
:10DA58001000000009B504480068044B03441B6823
:10DA68009B69029309BD0000ACAD071010000000CF
:10DA780009B504480068044B03441B68DB6902933A
:10DA880009BD0000ACAD07101000000009B504483E
:10DA98000068044B03441B681B6A029309BD00001D
:10DAA800ACAD07101000000009B504480068044B2D
:10DAB80003441B685B6A029309BD0000ACAD071004
:10DAC8001000000009B504480068044B03441B68B3
:10DAD8009B6A029309BD0000ACAD0710100000005E
:10DAE80009B504480068044B03441B68DB6A0293C9
:10DAF80009BD0000ACAD07101000000009B50448CE
:10DB08000068044B03441B681B6B029309BD0000AB
:10DB1800ACAD07101000000009B504480068044BBC
:10DB280003441B685B6B029309BD0000ACAD071092
:10DB38001000000009B504480068044B03441B6842
:10DB48001B6C029309BD0000ACAD0710100000006B
:10DB580009B504480068044B03441B681B6D029315
:10DB680009BD0000ACAD07101000000009B504485D
:10DB78000068044B03441B685B69029309BD0000FD
:10DB8800ACAD07104C00000009B504480068044B10
:10DB980003441B689B68029309BD0000ACAD0710E5
:10DBA8005000000009B504480068044B03441B6892
:10DBB800DB68029309BD0000ACAD071050000000FF
:10DBC80009B504480068044B03441B68DB690293E9
:10DBD80009BD0000ACAD07101800000009B50448E5
:10DBE8000068044B03441B681B6A029309BD0000CC
:10DBF800ACAD07101800000009B504480068044BD4
:10DC080003441B68DB68029309BD0000ACAD071034
:10DC18002400000009B504480068044B03441B684D
:10DC28001B69029309BD0000ACAD07102400000079
:10DC380009B504480068044B03441B685B690293F8
:10DC480009BD0000ACAD07102400000009B5044868
:10DC58000068044B03441B689B69029309BD0000DC
:10DC6800ACAD07102400000009B504480068044B57
:10DC780003441B68DB69029309BD0000ACAD0710C3
:10DC88002400000009B504480068044B03441B68DD
:10DC98001B6A029309BD0000ACAD07102400000008
:10DCA80009B504480068044B03441B689B6A029347
:10DCB80009BD0000ACAD07102400000009B50448F8
:10DCC8000068044B03441B681B6C029309BD0000E9
:10DCD800ACAD07102400000009B504480068044BE7
:10DCE80003441B681B68029309BD0000ACAD071014
:10DCF8003400000009B504480068044B03441B685D
:10DD08001B69029309BD0000ACAD07103400000088
:10DD180009B504480068044B03441B685B69029317
:10DD280009BD0000ACAD07103400000009B5044877
:10DD38000068044B03441B689B69029309BD0000FB
:10DD4800ACAD07103400000009B504480068044B66
:10DD580003441B68DB69029309BD0000ACAD0710E2
:10DD68003400000009B504480068044B03441B68EC
:10DD78001B6A029309BD0000ACAD07103400000017
:10DD880009B504480068044B03441B681B6D0293E3
:10DD980009BD0000ACAD07104800000009B50448F3
:10DDA8000068044B03441B685B68029309BD0000CC
:10DDB800ACAD07100800000009B504480068044B22
:10DDC80003441B685B69029309BD0000ACAD0710F2
:10DDD8000800000009B504480068044B03441B68A8
:10DDE800DB6A029309BD0000ACAD07100800000013
:10DDF80009B504480068044B03441B68DB6C0293B4
:10DE080009BD0000ACAD07100800000009B50448C2
:10DE18000068044B03441B685B6D029309BD000056
:10DE2800ACAD07100800000009B504480068044BB1
:10DE380003441B68D3F88830029309BDACAD0710C2
:10DE48000800000009B504480068044B03441B6837
:10DE5800D3F89430029309BDACAD07100800000058
:10DE680009B504480068044B03441B68D3F898308C
:10DE7800029309BDACAD07100800000009B50448BD
:10DE88000068044B03441B68D3F89C30029309BD17
:10DE9800ACAD07100800000009B504480068044B41
:10DEA80003441B68D3F8A830029309BDACAD071032
:10DEB8000800000009B504480068044B03441B68C7
:10DEC8009B68029309BD0000ACAD07102C00000050
:10DED80009B504480068044B03441B68DB680293D7
:10DEE80009BD0000ACAD07102C00000009B50448BE
:10DEF8000068044B03441B685B69029309BD00007A
:10DF0800ACAD07102C00000009B504480068044BAC
:10DF180003441B681B6A029309BD0000ACAD0710DF
:10DF28002C00000009B504480068044B03441B6832
:10DF3800DB6B029309BD0000ACAD07102C0000009C
:10DF480009B504480068044B03441B685B6C0293E2
:10DF580009BD0000ACAD07102C00000009B504484D
:10DF68000068044B03441B685B68029309BD00000A
:10DF7800ACAD07102800000009B504480068044B40
:10DF880003441B689B68029309BD0000ACAD0710F1
:10DF98002800000009B504480068044B03441B68C6
:10DFA800DB68029309BD0000ACAD07102800000033
:10DFB80009B504480068044B03441B681B690293B5
:10DFC80009BD0000ACAD07102800000009B50448E1
:10DFD8000068044B03441B685B69029309BD000099
:10DFE800ACAD07102800000009B504480068044BD0
:10DFF80003441B689B69029309BD0000ACAD071080
:10E008002800000009B504480068044B03441B6855
:10E01800DB69029309BD0000ACAD071028000000C1
:10E0280009B504480068044B03441B681B6A029343
:10E0380009BD0000ACAD07102800000009B5044870
:10E048000068044B03441B681B6B029309BD000066
:10E05800ACAD07102800000009B504480068044B5F
:10E0680003441B685B6B029309BD0000ACAD07104D
:10E078002800000009B504480068044B03441B68E5
:10E088001B6C029309BD0000ACAD0710280000000E
:10E0980009B504480068044B03441B685B6C029391
:10E0A80009BD0000ACAD07102800000009B5044800
:10E0B8000068044B03441B681B68029309BD0000F9
:10E0C800ACAD07100400000009B504480068044B13
:10E0D80003441B685B68029309BD0000ACAD0710E0
:10E0E8000400000009B504480068044B03441B6899
:10E0F8009B68029309BD0000ACAD07100400000046
:10E1080009B504480068044B03441B68DB6A0293A2
:10E1180009BD0000ACAD07100400000009B50448B3
:10E128000068044B03441B681B6B029309BD000085
:10E13800ACAD07100400000009B504480068044BA2
:10E1480003441B681B6C029309BD0000ACAD0710AB
:10E158000400000009B504480068044B03441B6828
:10E168005B6C029309BD0000ACAD07100400000011
:10E178000021FFF721BE10B5836804460BB901F0F2
:10E1880073FAC3689847A3681BB103222146204647
:10E1980098472046BDE810401021FEF7C6BD10B5CF
:10E1A8008368044613B1032201469847204610BDF0
:10E1B80013B56C460B460246D0E9000184E803001B
:10E1C80093E8030082E8030094E8030083E803006F
:10E1D80002B010BD002302480360FFF7BDBB00BFBB
:10E1E80080AE071070470020704710B50446102114
:10E1F800FEF79BFD204610BD08B5FFF7F6FF08BDEA
:10E20800002230B54FF69C74026084808D888C8023
:10E218000C68858004600A6030BD10B5044600684B
:10E22800FFF752FF204610BD38B5C46814B32378F1
:10E23800DBB2022B03D104F10C00FFF7EEFF231D24
:10E248001D6835B12846FFF7AAFF10212846FEF7BA
:10E258006CFD04F108031D6835B12846FFF79FFFE0
:10E2680010212846FEF761FD2046BDE838401421FC
:10E27800FEF75BBD38BD1FB50C230021ADF8043097
:10E288000368ADF80D108DF80630037A8DF80F107D
:10E298008DF8073043680293437A01A88DF80C3053
:10E2A800FFF74EFE05B05DF804FB0B6803604B6892
:10E2B800436013B15A6801325A60704737B5044653
:10E2C80068460D46FFF7F1FF009B019A2360002383
:10E2D800626001A801930093FEF750FD35B1281D37
:10E2E800FEF74CFD08212846FEF71FFD204603B027
:10E2F80030BD826810B50AB901F0B6F9C368BDE847
:10E308001040184708B5006800F11001FFF7F1FF49
:10E3180008BD826810B50AB901F0A6F9C368BDE85E
:10E328001040184708B5006800F11001FFF7F1FF29
:10E3380008BD000038B500230446036010200D46D0
:10E34800FEF7EFFC28B10123C0E90133024BC56099
:10E3580003602060204638BDB0FD3F0238B5002379
:10E3680083608B6804460D462BB102229847EB6800
:10E37800E360AB68A360204638BD0000F0B589B003
:10E3880004686846FFF73CFF4FF00203D4E84F2FBC
:10E39800002A03D1C4E8413F0029F7D121D104F173
:10E3A8000C0569462846FFF72BFF0122631CC3E8CA
:10E3B8008F2F002004F10803D3E8EF6FC3E8E20FC2
:10E3C800002AF9D16EB1FFF713FD78B1294630461E
:10E3D800FFF78FFF3046FFF7E2FE10213046FEF7C9
:10E3E800A4FC6846FFF719FF09B0F0BD314602A842
:10E3F800FFF7B4FFE068B4F9105008B101F088F9EC
:10E4080006901020ADF81C50FEF78BFC0546E8B1CD
:10E41800002787601820FEF784FC044688B101466F
:10E42800876002A8FFF7C4FE049BA268A360059B4F
:10E438000492E26806A9E36004F110000592FFF770
:10E44800DFFE084B2C60EB60074BAB6006A8FFF7BC
:10E45800E4FE02A8FFF7A3FE002229460348FFF7BF
:10E46800D5FCB7E71DE83F0299EA3F028FE63F0275
:10E478002DE9F04F8BB005460F46904699469DF81A
:10E4880050A0FFF733FD07AE834638BB4FF62E7317
:10E49800059005A93046ADF81830FFF7B1FE1420F5
:10E4A800FEF73FFC044648B1022303700123C0E98C
:10E4B80001BB437031460C30FFF7A2FE28462146C7
:10E4C80040F8044BFFF736FF3046FFF7A6FE05A8D5
:10E4D800FFF7A3FE28460BB0BDE8F08F0C230024FD
:10E4E8001420CDE908440793FEF71BFC014618B138
:10E4F800C0E901440470447004A80391FFF71AFFAF
:10E508001E4B08200893FEF70CFC044610B103A923
:10E51800FFF7CBFE4A464146384600965FFA8AF333
:10E528000994FFF7F1FCB8B9039B01331B78DBB200
:10E5380093B905934FF69C7305A903A8ADF8183055
:10E54800FFF71CFF05A8FFF768FE05A80999FFF764
:10E55800B5FE06A8FEF712FC03A905A8FFF7A5FE5D
:10E56800059B069A2B6000236A6006A8069305930C
:10E57800FEF704FC04A8FEF701FCABE715EB3F022D
:10E58800012AF8B5054603D10B6803600020F8BDE1
:10E59800022A10D0032AF9D10468002CF6D004F11D
:10E5A8001000FFF73AFE2046FFF7F9FD1821204634
:10E5B800FEF7BBFBEAE718200E68FEF7B2FB04463D
:10E5C80050B13146FFF7CAFE3069B6F9147008B188
:10E5D80001F09EF82061A7822C60D7E738B50023A8
:10E5E80083608B6804460D462BB102229847EB687E
:10E5F800E360AB68A360204638BD0000F0B5044670
:10E6080089B00D4601A81146FFF758FEA4B124B2FF
:10E618001DB1284601F07CF8054601A803A9039519
:10E62800ADF81040FFF7AAFE03A8FFF7F6FD02A811
:10E63800FEF7A4FB09B0F0BD0123019DD5E84F2FDB
:10E64800002A03D1C5E8413F0029F7D1EFD12B7348
:10E658000122EB18C3E88F2F2B1DD3E8EF6FC3E817
:10E66800E24F002AF9D1002EE1D02046FFF7C0FB87
:10E67800074660B1304605F10C01FFF74AFE304607
:10E68800FFF78DFD10213046FEF74FFBCFE73146EF
:10E6980003A8FFF7A3FF2B7B10208DF81C30FEF793
:10E6A80040FB0546D0B187601420FEF73AFB0446CC
:10E6B80078B10146876003A8FFF77AFD059BA26839
:10E6C800A360069B0592E268E3609DF81C30069201
:10E6D8002374074B2C60EB60064BAB6003A8FFF775
:10E6E8005EFD002229460448FFF790FBC7E700BFFC
:10E6F8003DE83F0215EC3F028FE63F02012A70B564
:10E70800044603D10B680360002070BD022A0CD0B8
:10E71800032AF9D10468002CF6D02046FFF73FFD04
:10E7280014212046FEF701FBEEE714200E68FEF7E1
:10E73800F8FA054620B13146FFF750FF337C2B74B9
:10E748002560E1E7002240681146FFF769BC002216
:10E7580040681146FFF780BC00224068FFF76EBC96
:10E768000022406881F00101FFF74CBC002340689B
:10E778001A461946FFF738BC002340681A4619465E
:10E78800FFF724BC002240681146FFF711BC0022A5
:10E7980040681146FFF7F0BB002202214068FFF7EE
:10E7A800F9BB002340681A46FFF7D8BB0322024B87
:10E7B8005A60024A1A60704784AE0710CCFD3F02C7
:10E7C8007047F8B5064615460C468F18BC4206D069
:10E7D800336830469B6814F8011B9847F6E72846CB
:10E7E800F8BD0022007CFFF751B90021007CFFF73B
:10E7F8005BB90021007CFFF765B90021007CFFF7B9
:10E808006FB90021007CFFF779B910B504461421CF
:10E81800FEF78BFA204610BD38B5044615464FF46E
:10E828007A730022C4E90123094B08462174236046
:10E838002946FFF77FF9BF3008D16B69DB0705D59B
:10E848006868FFF741FCE868FFF73EFC204638BDE2
:10E8580008FE3F020022007CFFF7E0B80023007C9E
:10E868001A461946FFF7E8B87FB500221423CDE908
:10E878000122ADF804300B78007C8DF808304B6825
:10E888000393CB6804930B7A01A90593FFF760F90A
:10E8980007B05DF804FB1FB5003B8DF800104FF082
:10E8A800640118BF01230391694601928DF808306D
:10E8B800FFF7DAFF05B05DF804FB0123FFF7EBBFB4
:10E8C8000022007CFFF7C6B80022007CFFF7D0B812
:10E8D8000121FFF7F9BF704710B504461821FEF76C
:10E8E80024FA204610BDF0B5037D0E46062B4FF0E6
:10E8F80000048DB000F1040712D000F1080515F8E6
:10E90800011D0A22304600F044F9AF42044419D0F0
:10E91800002CF4D02E21304600F038F90444EEE7FC
:10E928002F236A4639460A208DF80040FFF71EF962
:10E938006846FEF7D1F93368024669463046DB6817
:10E948009847044620460DB0F0BD000010B50446B7
:10E95800044B1122002140F8043B00F09BFE2046A6
:10E9680010BD00BF30FE3F020346074A10B543F80A
:10E97800042B01F1100251F8044B914243F8044B67
:10E98800F9D10A781A7010BD30FE3F0210B59DF813
:10E99800084044EA032343EA0242042342EA0161AD
:10E9A8004160037510BD000007B5064B0360CB78C6
:10E9B80000938B784A780978FFF7E8FF03B05DF891
:10E9C80004FB00BF30FE3F02014B024A1A60704749
:10E9D8008CAE07103CFE3F02002340681A46FFF742
:10E9E800BDBA002202214068FFF7D4BA002240686D
:10E9F8001146FFF7C1BA002240681146FFF7D8BA9E
:10EA0800002340681A461946FFF7E0BA0023406819
:10EA18001A461946FFF7E8BA00214068FFF72ABBF3
:10EA280000214068FFF734BB0022406881F00101F3
:10EA3800FFF7E8BA00224068FFF700BB00224068F1
:10EA48001146FFF709BB002240681146FFF7E8BAF4
:10EA58002DE9F04395B014460D460746FFF776FFBB
:10EA680000211C220DA8009100F014FE402320462E
:10EA78000C9300216B460CAAFFF794F80446002873
:10EA88004BD1024601216868FFF792FA02218046BD
:10EA980022466868FFF78CFA21468146009E002EC0
:10EAA8003BD0002939D17368022B03D00A2B11D02F
:10EAB800F669F4E7B8F1000FFAD0716906A80431D5
:10EAC8003C1D07ADFFF770FF0FCD0FC42B68414603
:10EAD8002370EDE7B9F1000FEAD0102201A874699C
:10EAE80000F0D8FD062301AD8DF8143004F10803B9
:10EAF80018342A4618685968083303C2A3421546D1
:10EB0800F7D101A906A83C1D07ADFFF72DFF0FCDD2
:10EB18000FC42B6849462370CAE70098FFF734F8FA
:10EB2800384615B0BDE8F083024B034A1A6000224C
:10EB38005A60704790AE071048FE3F02F8B5064687
:10EB48000D4600248F18BD420CD0336830469B68B0
:10EB580015F8011B9847031E01DB1C44F3E7002C42
:10EB680008BF1C462046F8BD13B50446084659B1EF
:10EB78000191FEF7B1F80246204623680199DB6847
:10EB880002B0BDE81040184702B010BD03689B688A
:10EB980018470023012A98BF0A2230B58BB08DF898
:10EBA800243009AC0D46B1FBF2F101FB125303F01E
:10EBB800FF03092B94BF30333733DBB2AA4204F882
:10EBC800013DEFD92146FFF7CFFF0BB030BD000064
:10EBD8000022014B9A60704798AE071010B50446A2
:10EBE80008462170FEF7ECFF00232046636010BD45
:10EBF8002DE9F14F57EC106B80460C46002200239C
:10EC080010EE100A3946FDF771FE28B107F10043EE
:10EC18001F462D2304F8013B00234FF001090A2267
:10EC2800D9B2884503D902FB09F90133F8E7484608
:10EC3800FDF780FB32463B46FDF7E6FB06460F46EE
:10EC4800FDF7B4FE8A4605468B46FDF7A7FB02464C
:10EC58000B4630463946FDF71FFA0022134BFDF7E5
:10EC680059FE10B101354AF1000B4A46284659466B
:10EC7800D317FDF783FE0123154621460A2200F02B
:10EC8800A6FAB8F1000F0ED02046FEF725F82E237D
:10EC9800211823540A2243462846013101B0BDE811
:10ECA800F04F00F094BA01B0BDE8F08F0000E03FEB
:10ECB80010B504460068FFF707FA204610BD10B5E6
:10ECC8000446006808B1FFF7FFF90023C4E90133DF
:10ECD800236010BD38B504460D4600680131FFF7C2
:10ECE80001FA10B1C4E90005012038BD10B5036868
:10ECF800044623B143688B4201D3012010BD20464E
:10ED0800FFF7E8FF0028F9D0A368002BF5D12268A7
:10ED18001370F2E737B50D46114601920446FFF726
:10ED2800E5FF019A28B92046FFF7C9FF204603B03E
:10ED380030BD2946A260206800F09FFC00212268AF
:10ED4800A368D154F2E7002313B50446C0E90033A1
:10ED58008360037341B108460191FDF7BDFF019936
:10ED680002462046FFF7D6FF204602B010BD13B575
:10ED7800044659B108460191FDF7AEFF01990246D4
:10ED88002046FFF7C7FF204602B010BDFFF797FFE8
:10ED9800F9E710B5002304468AB0C4E90033A3603C
:10EDA8002373084601A900F037FA204601A9FFF7A6
:10EDB800DEFF20460AB010BD30B5002304468BB0F4
:10EDC800C4E90033A360237310EE100ACDB2FDF737
:10EDD800C3FA41EC100B284601A9FFF709FF2046AA
:10EDE80001A9FFF7C4FF20460BB030BD70B505463A
:10EDF8000E4609B9002070BD6AB1846814442146E2
:10EE0800FFF774FF0028F5D02868AB68314618442E
:10EE180000F076FCAC600120EDE710B58A6809685F
:10EE28000446FFF7E3FF10B92046FFF748FF2046E6
:10EE380010BD10B50446006818B1FFF745F9002366
:10EE4800236010BD38B50C460546FFF7F2FF54B1F4
:10EE58002088FFF72BF9286028B121462288BDE8D1
:10EE6800384000F00ABC38BD38B50C46B1F904305A
:10EE780005468380D1F80630C0F806304B894381B7
:10EE8800FFF7D7FF236813B12B600023236038BD39
:10EE9800F0B52B4D0B7D04468BB00846AF1D002BFB
:10EEA80036D00B681B79002B32D00022254B02A9E3
:10EEB80004300493CDE90222FEF7EEFFDDF80E30B0
:10EEC80000B2C5F80630BDF81230ADF80C00A880C5
:10EED80002992846BB80FFF7B5FF02A8FFF7A9FFF4
:10EEE80000232360A380A37123814FF6FF736381FE
:10EEF800B5F904302046A380D5F806302968C4F84F
:10EF08000630BB886381FFF79DFF20460BB0F0BD3C
:10EF180000262023CDE902360B4B02AA00933220AB
:10EF280033460A49FEF72CFF4FF6F262054B0448B8
:10EF380002A9CDE903230296FFF796FFCDE700BFAC
:10EF4800A8AE07100000FFFF83FE3F027CFE3F02D1
:10EF580002220020044B1A60044B054AC3E9000052
:10EF68009A60FEF71BBF00BFB4AE0710A8AE07102B
:10EF78000000FFFF024B1A68024B1A60704700BF7F
:10EF8800D0AD0710B8AE071070474174704708B588
:10EF9800007CFEF785FE20EAE07008BD08B5007C1D
:10EFA800FEF738FE20EAE07008BD08B5007CFEF7E1
:10EFB8004DFE40EAE07008BD08B5007CFEF738FE5B
:10EFC80040EAE07008BD007CFEF74EBE37B5457CD0
:10EFD80004462DB1207C03B0BDE83040FEF70CBEDE
:10EFE800007C0191FEF75CFE00280199F2DC2846BE
:10EFF80003B030BD10B504461421FDF796FE204637
:10F0080010BD000010B54FF47A7304460846114647
:10F018000022C4E90123044B207423600123637494
:10F02800FEF74CFE204610BDD0FE3F02007CFEF7E6
:10F0380029BE417470477047704708B50021007CAD
:10F04800FEF774FE40EAE07008BD08B50121007CB7
:10F05800FEF76CFE40EAE07008BD08B5007CFEF7DC
:10F0680057FE20EAE07008BD08B5007CFEF742FEB6
:10F0780020EAE07008BD13B50446007C0191FEF754
:10F0880047FE0028019901DC607C20B1207CFEF756
:10F098005BFE20EAE07002B010BD007CFEF762BEA5
:10F0A80010B504461421FDF740FE204610BD0000AF
:10F0B80010B54FF47A73044608460021C4E90113D9
:10F0C800044B20742360012311466374FEF704FE89
:10F0D800204610BD00FF3F0210B50446142200214F
:10F0E80000F0D8FA204610BD10B588B003A8FFF785
:10F0F800F3FF0C4CD4E88F1F11F001010FD120460B
:10F108000191FDF714FE019948B103AA0648FFF7DB
:10F11800CFFF2046FDF710FE044800F0A8FA024889
:10F1280008B010BDBCAE0710C0AE07104FF53F02C7
:10F13800002240681146FEF73BBF00224068114696
:10F14800FEF76EBF002240681146FEF785BF002219
:10F158004068FEF773BF0022406881F00101FEF7A6
:10F1680051BF002340681A461946FEF73DBF0023E9
:10F1780040681A461946FEF729BF00224068114622
:10F18800FEF7FABE002202214068FEF703BF002303
:10F1980040681A46FEF7E2BE0422024B5A60024A51
:10F1A8001A607047D4AE071030FF3F0210B504460E
:10F1B800FDF792FD013823182046834206D90278CC
:10F1C800197800F8011B03F80129F6E710BD70B59E
:10F1D8000C46911E22291DD8254630B930222344D9
:10F1E8009D4210D205F8012BFAE7B0FBF2F602FBBC
:10F1F8001600C1B2092894BF30315731C9B2304620
:10F2080005F8011BE9E7002320462B70FFF7CEFF26
:10F21800204670BD0020FCE738B5031E0C46154695
:10F228000DDA2D22B3F1004F0CBF184658420123C6
:10F238000A702A461944FFF7CAFF204638BD012341
:10F24800F9E70000014B1860704700BFD4AD071004
:10F2580008B50F4B43B1FFF747FF03681B69984791
:10F26800002801DD00E000BF0A4B43B100F06AF955
:10F2780003681B699847002801DD00E000BF064BC2
:10F288000BB100F0A5F9054B0BB100F0D7F908BD9B
:10F298000000000000000000000000000000000066
:10F2A80008B5FFF7D5FFFEF781FB014B186008BDD5
:10F2B800F0AE07100548064A08B5121A054900F0CD
:10F2C800DCF9054B054A1A6008BD00BF00B40710F9
:10F2D80004B407107CFB5F0800B407101E1C279AB3
:10F2E800002307B51A466FF077010093FEF7AAFDD1
:10F2F80003B05DF804FB000007B543880A2B08D06B
:10F30800502B0BD1094B1B684BB103B05DF804EBD4
:10F318001847FFF7E5FF03B05DF804FB00231A4622
:10F328006FF077010093FEF78DFDF4E7E0AE07106C
:10F33800002110B51148FEF70DFF114B1A68114B4B
:10F348009A420CBF012200220F4B1A7001D0FFF71E
:10F35800B1FFFEF70FFB044600F0A4F90B4B13B105
:10F36800204600E000BF00210848FEF7DBFDBDE8AD
:10F37800104000210648FEF757BD00BF5DF73F0269
:10F3880000B407101E1C279ADCAE0710000000000E
:10F3980011F83F021B2837B5044602D9002003B0F4
:10F3A80030BDA0F10F03022B0BD9012821D800F0A2
:10F3B80075F80021007CFEF7AFFB80F00100C0B2B9
:10F3C800EDE7114DD5E88F1F11F001010BD128464B
:10F3D8000191FDF7ACFC019928B10C48FFF7FEFB41
:10F3E8002846FDF7A9FC094B1878FEF7F7FB00281B
:10F3F800D4D1083C012C05D800F0A4F8007CFEF715
:10F4080041FCDAE70120CAE7E4AE0710E8AE0710CE
:10F418001B2838B504460D460AD8FF2908D0FFF73F
:10F42800B9FF28B129462046BDE83840FEF7CCBAD6
:10F4380038BD38B504460D46FEF7D4FAFF2810D07B
:10F44800062804D84D2323FA00F0C30709D4204620
:10F45800FFF7A0FF28B129462046BDE83840FEF74F
:10F46800CFBA38BD7047000038B50A4B0446036070
:10F47800012309494361202000F0F4F82025606049
:10F4880005492846A56000F0EDF8C4E903052046C3
:10F4980038BD00BF1800010064FF3F0230B50E4DB3
:10F4A80087B0D5E88F1F11F0010411D12846FDF768
:10F4B8003EFC68B16846FFF7D7FF6A462146074811
:10F4C800FFF7AAF92846FDF737FC054800F0CFF802
:10F4D800024807B030BD00BFF4AE0710F8AE071001
:10F4E8007DF93F027047000038B5142504462A46C6
:10F4F800002100F0CFF825804025074928462581BE
:10F50800258200F0AFF804496060284600F0AAF8A8
:10F51800E060204638BD00BF64FF3F027047704777
:10F5280010B50446FFF7E0FF204610BD10B50446AD
:10F53800FFF7DAFF204610BD10B50446FFF7D4FFE9
:10F54800204610BD30B50E4D87B0D5E88F1F11F09D
:10F55800010411D12846FDF7EAFB68B101A8FFF7BD
:10F56800DFFF214601AA0748FFF74CFD2846FDF7B3
:10F57800E3FB054800F07BF8024807B030BD00BF48
:10F588000CAF071018AF0710FDF93F0210B50D4C6E
:10F5980086B0D4E88F3FDB0711D42046FDF7C7FBC0
:10F5A80068B101A8FFF7C2FF012101AA0648FFF7C9
:10F5B80029FD2046FDF7C0FB044800F058F8024832
:10F5C80006B010BD10AF07102CAF071037FA3F0276
:10F5D80010B5FFF7DBFF074B044653B1FFF726FDD5
:10F5E80038B1236820461B699847002801DD00E0F0
:10F5F80000BF10BD0000000010B50D4C86B0D4E867
:10F608008F3FDB0711D42046FDF791FB68B101A8B5
:10F61800FFF792FF022101AA0648FFF7F3FC2046F4
:10F62800FDF78AFB044800F022F8024806B010BD36
:10F6380014AF071040AF071035FA3F0210B5FFF7B7
:10F64800DBFF074B044653B1FFF7F0FC38B12368E2
:10F6580020461B699847002801DD00E000BF10BD67
:10F6680000000000FDF75FBB08B5FEF749FD002369
:10F6780001461A46184600F069B80A44431E9142EA
:10F6880000D1704710B511F8014B914203F8014FB2
:10F69800F9D110BD02440346934200D1704703F8E4
:10F6A800011BF9E738B5104B04461D68AB6BB3B9BD
:10F6B8001820FEF7FBFC0246A86320B90B4B422139
:10F6C8000B48FEF739FD0B490B4BC0E900130B4BF8
:10F6D800002183600B2383810120C2E90401AB6B05
:10F6E80000221C615A6138BDD4AD071065FF3F0286
:10F6F8007CFF3F020E33CDAB34126DE6ECDE050025
:10F70800034611F8012B03F8012B002AF9D17047A1
:10F71800024B0146186800F003B800BFD4AD0710CB
:10F7280037B5044608460D46FDF7D6FA421C204672
:10F7380011460192FEF7F2FC044618B1019A2946D7
:10F74800FFF79BFF204603B030BD00002DE9F843CA
:10F75800DFF8BC8006461F460D46D8F800009146E3
:10F7680000F058F8264B1C6834B9264C1C60264B10
:10F7780013B11B68C4F8883063681F2B07DDD8F8FD
:10F78800000000F049F84FF0FF30BDE8F8835EB3A1
:10F79800D4F8880088B91D4B23B9D8F8000000F0C8
:10F7A8003AF8F0E74FF48470FEF780FC0028F4D0B4
:10F7B8000023C0E94033C4F8880063680122022EA0
:10F7C80040F8239002FA03F200EB8301D0F80031ED
:10F7D80043EA0203C0F80031C1F8807002BFD0F8D4
:10F7E80004311343C0F804316368D8F800005A1C88
:10F7F8000233626044F8235000F00EF80020C4E79A
:10F80800E0AF071054AF071000000000C5E53F0245
:10F8180038AE0710704770477047000001D23F02AA
:10F8280029D23F022DD23F0200000000436F756CC1
:10F8380064206E6F742066696E6420612076616C46
:10F84800696420546F4631206F6E206275732030D2
:10F858002C20636865636B20776972696E67210085
:10F86800546F6620446576696365204F4B00576185
:10F87800746572204C6576656C3A20004C65766537
:10F888006C2044697374616E63653A20000000005F
:10F898000000000000000000FDE63F0203E73F0211
:10F8A80041E73F0211E73F02FFE63F020000000088
:10F8B80000000000BBEC3F02B1EC3F02A7EC3F02A6
:10F8C8009DEC3F0291EC3F0285EC3F0231EF3F0295
:10F8D80039EF3F0279EC3F0271EC3F0267EC3F02DF
:10F8E8005DEC3F0269EF3F020000000000000000ED
:10F8F800D9EC3F0223ED3F02FBEC3F02DBEC3F0279
:10F9080003ED3F020BED3F0213ED3F021BED3F02FB
:10F918000000000000000000FFED3F02EFED3F0295
:10F92800F1ED3F026170700000000000000000006F
:10F93800F1EE3F02FBEE3F0205EF3F020FEF3F0201
:10F9480019EF3F0225EF3F0231EF3F0239EF3F0247
:10F9580041EF3F024DEF3F0255EF3F025FEF3F029D
:10F9680069EF3F02776972696E670053797374654E
:10F978006D20736C65657020636F6E66696775725C
:10F988006174696F6E20697320696E76616C696451
:10F998002E0025592D256D2D25645425483A254DD1
:10F9A8003A2553257A0061736374696D6500000018
:10F9B8000000000000000000A1F43F020DF53F0226
:10F9C800E5F43F0255F03F02B5F43F02D1F43F029F
:10F9D800C3F43F02DFF43F02A3F43F02A7F43F025F
:10F9E800000000000000000051F53F02B9F53F0299
:10F9F8008FF53F0255F03F0281F53F0253F53F0274
:10FA080063F53F02B3F53F0273F53F024BF53F0242
:10FA18000000000000000000A7F63F029DF63F022C
:10FA280093F63F0249F63F0287F63F027BF63F0214
:10FA380031EF3F0239EF3F026FF63F0267F63F02B0
:10FA48005DF63F0253F63F0269EF3F02005245451B
:10FA58004E54206D616C6C6F6320737563636565CC
:10FA6800646564002F746D702F6A656E6B696E73C0
:10FA78002D4743432D31302D706970656C696E6573
:10FA88002D34385F32303230313132345F313630F4
:10FA9800363138303633392F7372632F6E65776C91
:10FAA80069622F6E65776C69622F6C6962632F7368
:10FAB80074646C69622F72616E642E6300000000CA
:10FAC800C1D23F02EDE63F02C5EC3F02E1EE3F0244
:10FAD80041F03F02E9F03F0269F43F028DF43F0232
:04FAE800B1F63F0232
:10FAEC0000000002C4090000A00F0000E8030000A1
:10FAFC00C3090000F4010000E7030000030000004C
:10FB0C0002000000BEFE3F02D8AD0710000000004E
:10FB1C0000000000000000000000000000000000D9
:10FB2C0000000000000000000000000000000000C9
:10FB3C0000000000000000000000000000000000B9
:10FB4C0000000000000000000000000000000000A9
:10FB5C000000000000000000000000000000000099
:10FB6C00000000000000000000000000E4AF0710DF
:04FB7C000000000085
:10FFBE000200100000C05F0890C05F08A0C53F029D
:10FFCE0001000A00FFFFFFFFFFFF00000102030414
:10FFDE0005060708090A0B0C0D0E0F10111213144B
:0EFFEE0015161718191A1B1C1D1E1F203E0089
:04FFFC0078563412ED
:04000005085FC018B8
:00000001FF
